:020000040800F2
:10000000D0070020A5010008AD010008AF010008DD
:1000100000000000000000000000000000000000E0
:10002000000000000000000000000000B101000816
:100030000000000000000000B30100088109000872
:10004000B7010008B7010008B7010008B7010008B0
:10005000B7010008B7010008B7010008B7010008A0
:10006000B701000871080008B7010008B7010008CF
:10007000B7010008B7010008B7010008B701000880
:10008000B7010008B7010008B7010008B701000870
:10009000B7010008B7010008B7010008B701000860
:1000A000B7010008B701000801090008B7010008FE
:1000B000B7010008B7010008B7010008B701000840
:1000C00000F002F800F042F80CA030C808382418FC
:1000D0002D18671EA246AB4654465D46AC4201D180
:1000E00000F034F87E460F3EB6460FCC0126334270
:1000F00000D0FB1A3343A246AB46184778140000E1
:1001000098140000103A02D378C878C1FAD8520780
:1001100001D330C830C101D504680C6070470000BD
:100120000023002400250026103A01D378C1FBD813
:10013000520700D330C100D50B6070471FB500983F
:10014000019900F09AFA1FBD10B510BD00F015FB23
:100150001146FFF7F3FF01F099F800F02DFB03B40F
:10016000FFF7F2FF03BC00F05DFB000070B5054631
:100170000C46164602E00FCC0FC5103E102EFAD2E8
:10018000082E02D303CC03C5083E042E07D301CCAE
:1001900001C5361F03E021782970641C6D1C761E92
:1001A000F9D270BD0748804707480047FEE7FEE7E1
:1001B000FEE7FEE7FEE7FEE704480549054A064B71
:1001C00070470000910A0008C1000008D00100201B
:1001D000D0070020D0030020D003002070B50646D1
:1001E00000F02EFA056830460B30C408E400B44233
:1001F00001D8002070BD68682A46002818D0016820
:10020000A14211D30B46214608318B4208D34368E3
:1002100001194B6003681B1B0B605160046001E017
:1002200041685160001D70BD024640680028E6D15B
:100230002146284600F00CFA0028DCD170BDF8B544
:10024000042A2CD3830712D00B78491C0370401C5E
:10025000521E83070BD00B78491C0370401C521EA2
:10026000830704D00B78491C0370401C521E8B0777
:100270009B0F05D0C91ADF002023DE1B08C90AE046
:10028000FFF774FFF8BD1D4608C9FD401C46B44089
:100290002C4310C0121F042AF5D2F308C91A521EAB
:1002A000F0D40B78491C0370401C521EEAD40B7822
:1002B000491C0370401C012AE4D409780170F8BD80
:1002C000002203098B422CD3030A8B4211D3002353
:1002D0009C464EE003460B433CD4002243088B422D
:1002E00031D303098B421CD3030A8B4201D39446BA
:1002F0003FE0C3098B4201D3CB01C01A52418309AD
:100300008B4201D38B01C01A524143098B4201D366
:100310004B01C01A524103098B4201D30B01C01A91
:100320005241C3088B4201D3CB00C01A524183080B
:100330008B4201D38B00C01A524143088B4201D338
:100340004B00C01A5241411A00D201465241104698
:1003500070475DE0CA0F00D04942031000D340420D
:1003600053409C46002203098B422DD3030A8B4243
:1003700012D38901FC2212BA030A8B420CD38901E1
:1003800092118B4208D3890192118B4204D38901C7
:100390003AD0921100E08909C3098B4201D3CB0105
:1003A000C01A524183098B4201D38B01C01A5241BA
:1003B00043098B4201D34B01C01A524103098B42BE
:1003C00001D30B01C01A5241C3088B4201D3CB00A9
:1003D000C01A524183088B4201D38B00C01A52418C
:1003E000D9D243088B4201D34B00C01A5241411A63
:1003F00000D201465241104663465B1001D3404291
:10040000002B00D54942704763465B1000D3404241
:1004100001B50549002802DC491C084000E00846F7
:10042000C046C04602BD00BFFFFFFF7F7047704758
:1004300070470000F0B5FF252D04C609C209FF274B
:1004400004462E400137CB093E4348402A402B400A
:100450000746002A6BD0002B69D0AA4267D0AB4276
:1004600065D0002800DA32460125ED0529432C43EA
:1004700009022002090AD21A4B0C7F24E31A434CCA
:10048000000A7C44E35C7D242404121914145B00EC
:10049000A218884201D3521C00E0400049420C4699
:1004A0005C4324115C43DB016415E318040A5C43DC
:1004B000C502200D0C4644436419250A5D432303FD
:1004C000EC0C0D46654300030019EB184C42A342A7
:1004D00001D35B18401CD4052018002B07D05B000B
:1004E000C91804D3401C002901D1400840003F2115
:1004F00089048A4209D3002A08DC1106090F04D0B6
:10050000032149074018C00FC007F0BD0122410078
:10051000120689187F2252069142F6D20521490718
:10052000C84201D59010F0BDFF20C005F0BD002FDE
:1005300000DA32461648AA4207D2AB4205D2190267
:10054000090E17D0F80FC007F0BDFF2563002D0678
:10055000AB42F9D84900A942F6D8AB4201D1A94231
:10056000F2D0A94201D1002101E061004908D00583
:100570000843F0BD1102090EFBD0FF200243D00555
:10058000F0BD0A460146104654E700008E100000F8
:100590000000C07F10B501469E240002CA15A307C3
:1005A000002A02D01843002A04DBA21A002A0CDD1C
:1005B000D04010BD1206120E01D140004008A21A10
:1005C00003D4D04040420028F3DDFF224800120649
:1005D000904201D9002010BDC817C043584010BD3B
:1005E0001F22030C02D10F2200041CD0030E01D1E4
:1005F0000002083A030F01D10001121F830F01D13D
:100600008000921E002801DB4000521ED2055118C6
:10061000021251181922904004D3491C002801D11C
:100620004908490008467047C10FC90700D0404239
:10063000012292071143D3E701218907D0E7000087
:10064000004870471000002070477047704770479F
:1006500038B504460A4600206946C046C046002810
:1006600005D002462046009900F066F8012038BD0A
:1006700010B5012000F07AF810BDF8B5C046C046AC
:10068000054600200C461020C0460646A819A04288
:100690000DD9324669460020C046C046070001D148
:1006A00000F064F80098A04200D00546C419FFF796
:1006B000C7FFF61D07460560F008C000461928462A
:1006C00000F008F8B44204D031463868A21B00F0AC
:1006D00033F8F8BD00210160416080607047102050
:1006E000704770B50446051FFFF7AAFF0068002C8D
:1006F0001AD0446801E020466468002C01D0AC4266
:10070000F9D301680A18AA4204D12A680546891853
:10071000016000E0456028684119A14205D1616887
:10072000696021684018286070BD6C6070BD000071
:10073000004870470800002010B50346406801E0FB
:1007400003464068002801D08842F9D31868C318CE
:100750008B4206D0CB1CD808C000001D411A521A8B
:100760000146081D0A60FFF7BCFF10BD10B500F080
:1007700031F800F029F810BD70477546FFF7D8FF33
:10078000AE46050069465346C008C000854618B00D
:1007900020B5FFF711FD60BCB64600260027C0C596
:1007A000C0C5C0C5C0C5C0C5C0C5C0C5C0C5403D29
:1007B000490849008D46704710B50446C046C046FA
:1007C0002046FFF7CCFC10BD10B5002801D000F08A
:1007D00029F810BD10B5012805D0002103A000F0B4
:1007E00027F8012010BD09A1F8E70000534947523E
:1007F000544D454D3A204F7574206F6620686561F1
:1008000070206D656D6F7279000000003A204865B8
:100810006170206D656D6F727920636F7272757093
:100820007465640001491820ABBEFEE72600020093
:1008300070B505460C460A2000E06D1C00F012F869
:10084000002D06D028780028F7D102E0641C00F0C3
:1008500009F8002C02D020780028F7D10A2000F0F7
:1008600001F870BD08B5694608700320ABBE08BD2D
:1008700008480068800700280AD5FFE706482121BC
:100880000122425405480168022211430160FFE73A
:100890007047C04600000240E8000020040002400B
:1008A00080B584B0039002A8002101800398212123
:1008B000405CC007002820D0FFE700200190FFE740
:1008C00001980F280DDCFFE7039801994900405A71
:1008D0000299081802A90880FFE70198401C0190BE
:1008E000EEE702A80188090901800399212200236B
:1008F0008B54008800F082F9FFE704B080BD00004F
:1009000080B584B0084840210290019100F062FD5A
:10091000F348006803A9088000F0DEFC0298019902
:1009200000F02CFD04B080BD1408004880B584B0F0
:1009300002900298401E000E002803D0FFE701201D
:10094000039013E00298401E0A4908600020C1434A
:10095000032201900846114600F0B2F806480199BA
:1009600001600648072202600391FFE7039804B084
:1009700080BDC04614E000E018E000E010E000E0B8
:1009800080B504480168491C0160006800F0BAF9AC
:1009900080BDC046C401002080B586B0002005900F
:1009A000049003900290344800680C2108400590A0
:1009B00005980028019008D0FFE70198042808D086
:1009C000FFE70198082808D044E02E482C49016030
:1009D00044E02C482A49016040E0274801680F2282
:1009E00093041940049100680321C903084003904F
:1009F0000498800C801C0490204800681040401C23
:100A00000290039801210904884209D1FFE7029965
:100A10001B48FFF755FC049941431A48016018E050
:100A200003980321C903884209D1FFE702991648B8
:100A3000FFF746FC049941431248016008E002991F
:100A40000F48FFF73DFC049941430E480160FFE762
:100A5000FFE703E00B480A490160FFE7064800682A
:100A6000C0B200090949085C0590059805490A6863
:100A7000C2400A6006B080BD041002402C10024043
:100A800000127A0000000020006CDC0254150008FF
:100A90007047000081B001466A461070107840B27D
:100AA000002809D4FFE7684600781F21084001218B
:100AB000814002480160FFE701B0704700E100E0BB
:100AC00070B582B0024601AB18700091187840B240
:100AD000002817D4FFE701A8017849B20322D243C6
:100AE0001140184BC958007840B28407E40EFF2526
:100AF000A540A943009DAD01EDB2A540294310409A
:100B0000C1501AE001A801780F22114008390323CF
:100B1000DB4319400A4C0959007840B28507ED0EB5
:100B2000FF26AE40B143009EB601F6B2AE4031435F
:100B30001040083818400151FFE702B070BDC046B0
:100B40001CED00E000E400E00848016804221143C5
:100B50000160FFE7064800684007002801D4FFE76E
:100B6000F8E70448006880B27047C0460824014096
:100B70000024014040240140AA48006801210840A7
:100B80007047C04684B0029001910092029800998B
:100B9000884203DDFFE7009803900AE0029801997C
:100BA000884203DAFFE70198039002E0029803907D
:100BB000FFE7039804B0704781B000200090FFE782
:100BC00000983F280ADCFFE7009840004C490022CB
:100BD0000A52FFE70098401C0090F1E701B070470F
:100BE00080B5044801210170034845498022FFF780
:100BF00026FB80BD0A0100206800002080B586B079
:100C0000014605AA10801088401C0191FFF70CFDD9
:100C10008921C905FFF70EFC1A4900F023FCFFF7F4
:100C2000B9FC04A9088001200390FFE70398072876
:100C30000EDCFFE7039840001349085A039A52005C
:100C40005118891E0880FFE70398401C0390EDE7C8
:100C500004980D49C88100200290FFE702980728F8
:100C60000DDCFFE702984100074A515A0722114064
:100C700000F038F8FFE70298401C0290EEE706B05B
:100C800080BDC0460000E0402C01002084B00390ED
:100C90000291002001900090FFE70098072818DCDF
:100CA000FFE702980399C900009A89184900405E3D
:100CB0000399012213468B401902009B9A4011436D
:100CC0004143019808430190FFE70098401C0090C1
:100CD000E3E7019802490A6802430A6004B07047DA
:100CE0000C38004082B0019000910098C00001993A
:100CF00040184000024901220A5202B07047C04623
:100D00003C010020F0B58DB00C9042480168424A89
:100D10001140016041490B68414C23400B60414B3D
:100D20001D681026F7433D401D601D680B90202074
:100D30000A90C04305401D600B9D2D68099001205D
:100D40000890C00305430B9805600D6825400D60B1
:100D50001D6835402D090C98079033480690059181
:100D60002946079D04922A46039402930196009710
:100D700000F03AFB029801680A9A114049090C9A5E
:100D8000069B0833184600F02FFB0B980168049A65
:100D90001140016005990B68039C23400B60029B86
:100DA0001D68009E35401D601D68099F3D401D6007
:100DB0000568154005600D680898000305430D603F
:100DC0001868019D284001090C9A0698103000F01F
:100DD0000BFB029801680A9A114049090C9A069B7C
:100DE0001833184600F000FB0B980168049A114074
:100DF000016005990B68039C23400B60029B1D68F2
:100E0000009E35401D601D68099F3D401D600DB06E
:100E1000F0BDC04614000048FF7FFFFF14080048E3
:100E2000FFEFFFFF100000480C01002070B582B0FA
:100E300000F08CFA984801680522530419430160B8
:100E4000274801680323994301600168552424035E
:100E50002143016023490C6801256E0234400C6077
:100E600021490C680F263604B4430C600921C906D9
:100E70000C68AE0734430C600C681E02B4430C606F
:100E80000C689B029C430C608B490B685202134315
:100E90000B6001682A0611430160FFF7F9FDFFF7B7
:100EA0007BFD124800687D21C900FFF709FAFFF7B2
:100EB0003DFD0F4907220A60019000F069FA00F039
:100EC000ADF800F017F8ED480078C007002804D00E
:100ED000FFE7EB4800F044F8FFE702B070BDC04602
:100EE00000080048040800480C08004800000020E2
:100EF00010E000E017480168012253021943016025
:100F0000154801680223194301603C480168082321
:100F1000194301603A480168D20711430160FFE7B5
:100F200037480068C00F002801D0FFE7F8E73448D1
:100F30000168012211430160FFE708480068C0070B
:100F4000002801D1FFE7F8E72D480168042211438A
:100F5000016070471810024028240140002401401D
:100F600080B582B0019000200090FFE700980F2824
:100F70000ADCFFE701980099490000224252FFE78E
:100F80000098401C0090F1E7019821210022425472
:100F90000198202142541948016803221303194380
:100FA0000160016811430160154801680422114382
:100FB000016039480168012211430160114812495A
:100FC0000160019811490860114810210160114821
:100FD00001680B23DB011943016001680E4B1943C3
:100FE0000160016802231943016001681143016037
:100FF0000920FFF74FFD02B080BDC0460C24014020
:101000000824014010000240402401401400024026
:101010000C0002400800024020300000F0B581B012
:101020001D48016803225204114301601B480168F6
:1010300001229303194301601948002101600160F6
:101040001848194B03600F231B02184C2360184BE0
:101050001D681126F60635431D600923DB061D6851
:1010600017043D431D60134B1D6835431D60124B33
:101070001D68520415431D60026840231A43026034
:101080002068184320601A200091FFF703FD0B48E9
:101090000099016001B0F0BD141002401C10024024
:1010A00024040048003800403F030000043800409A
:1010B000000400480C0400480C0000480C380040B4
:1010C00080B58EB00D906B48C1680C9181680B9112
:1010D00041680A9100680990FFF74EFD002804D08E
:1010E000FFE7654801210170FFE700200890FFE756
:1010F0000898032852DCFFE70898C000B449081894
:101100004078C007002844D0FFE708985A49085C97
:10111000089A012383438B540898022805D1FFE7DE
:1011200058480168491C0160FFE70898032805D169
:10113000FFE754480168491E0160FFE7089801284D
:1011400005D1FFE750480168491C0160FFE7089896
:10115000002805D1FFE74C480168491E0160FFE700
:10116000494801680022072304900846114603926B
:101170001A460293FFF706FD049908604148026889
:10118000019010460399029AFFF7FCFC0199086050
:10119000FFE7FFE70898401C0890A9E700200790A8
:1011A000FFE70798032805DCFFE7FFE70798401CE7
:1011B0000790F6E70020C0430690FFE70698012855
:1011C0001CDCFFE73048006806994018002810D45E
:1011D000FFE72D48006806994018072809DCFFE75B
:1011E000294800680699401826490968FFF77AFDE2
:1011F000FFE7FFE70698401C0690DFE70020C043AA
:101200000590FFE7059801281CDCFFE71D480068F2
:1012100005994018002810D4FFE71A48006805997E
:101220004018072809DCFFE71748006815490968D6
:10123000059A8918FFF756FDFFE7FFE70598401C60
:101240000590DFE70D480078C007002805D1FFE7CB
:10125000FFF77AFCFFF7D2FC03E00948FFF720FB19
:10126000FFE7FFF7BDFCFFF7A7FC282000F0E6F83A
:101270000EB080BD64150008C001002005000020EC
:10128000E8000020CC010020C801002080B584B017
:1012900000200390042101900846FEF79FFF029072
:1012A000029801990160FFF7C1FDFFE70298FFF77F
:1012B00007FFFBE707480168012212029143016022
:1012C0007047C046034801680122120211430160C1
:1012D0007047C0461400004880B582B017480068C7
:1012E000082804DBFFE7164801210170FFE71448D6
:1012F0000078C00700280DD0FFE712480078C0072B
:10130000002801D1FFE716E00C48002101600C48DD
:101310000170FFE7FFF7D6FFFFF7CCFF0748016832
:10132000094A019008461146FFF7B0FC0198016890
:10133000491C0160FFE702B080BDC046BC0100202F
:10134000040000200A0100206800002081B0002075
:101350000090FFE700980E280BD8FFE70098C01C0C
:1013600005490A6802430A60FFE70098401C0090A4
:10137000F0E701B07047C0460008004882B0019015
:101380000091009801990A6882430A6002B0704790
:1013900081B000200090FFE70098032816DCFFE7EB
:1013A0000098C0000A490818002242600098C00056
:1013B000081842700098C0000A540098C00008182D
:1013C0008270FFE70098401C0090E5E701B070478D
:1013D0000C01002082B001900091009801990A68E8
:1013E00002430A6002B0704783B00B46029001A826
:1013F000017000920098029949680F3188421AD909
:10140000FFE702984078029901221040087001A875
:101410000078029910404870029840781040029974
:1014200009781140401A411E88410299887000983D
:1014300002994860FFE703B07047000082B0019056
:1014400007480068019940180090FFE704480068C9
:101450000099884201D9FFE700E0F7E702B0704742
:10146000C401002070B5420064414B005C41120E83
:1014700039D01B0E38D0FF2A3CD0FF2B3AD0D218DF
:101480007F3A40024902400A490A4518ED01060028
:101490004E43000A090A48430104731A4019190C03
:1014A0004318990F04D05B08012149075B1A521CAD
:1014B000D80904D3401CF50301D19D0607D0FF2AAB
:1014C00008D2D50506D0E4072043401970BD012598
:1014D000A843F4E7002A01DCE00770BD2402FF20E6
:1014E0002043C00570BD1B0EFF2A03D0FF2B01D087
:1014F000E00770BDFF2636064500B54206D84D0010
:10150000B54203D8D218FF2A00D0E7E7004870BDE3
:101510000000C07F8182838485868788898B8C8D3B
:101520008E8F919293959697999A9C9D9FA0A2A336
:10153000A5A7A8AAACAEB0B2B3B5B7B9BCBEC0C27D
:10154000C5C7C9CCCED1D4D7D9DCDFE2E6E9ECF00F
:10155000F3F7FAFE0000000000000000010203049F
:10156000060708094000000080000000000200009B
:101570000001000094150008000000200800000091
:10158000040100089C15000808000020C80700009E
:0C1590002001000800127A000101000098
:04000005080001A549
:00000001FF
