:020000040800F2
:10000000380700206D01000875010008770100081D
:1000100000000000000000000000000000000000E0
:10002000000000000000000000000000790100084E
:1000300000000000000000007B010008210E000805
:100040007F0100087F0100087F0100087F01000890
:100050007F0100087F0100087F0100087F01000880
:10006000510F00087F0100087F0100087F01000890
:100070007F0100087F0100087F0100087F01000860
:100080007F0100087F0100087F0100087F01000850
:100090007F0100087F010008350F00087F0100087C
:1000A0007F0100087F010008A90D00087F010008FA
:1000B0007F0100087F0100087F0100087F01000820
:1000C00000F002F800F042F80CA030C808382418FC
:1000D0002D18671EA246AB4654465D46AC4201D180
:1000E00000F034F87E460F3EB6460FCC0126334270
:1000F00000D0FB1A3343A246AB461847C423000086
:10010000E4230000103A02D378C878C1FAD8520725
:1001100001D330C830C101D504680C6070470000BD
:100120000023002400250026103A01D378C1FBD813
:10013000520700D330C100D50B6070471FB500983F
:10014000019900F0C4F91FBD10B510BD00F0E5FC29
:100150001146FFF7F3FF01F069FB00F0FDFC03B46B
:10016000FFF7F2FF03BC00F057FD0000074880478F
:1001700007480047FEE7FEE7FEE7FEE7FEE7FEE78B
:1001800004480549054A064B70470000310F000836
:10019000C100000838010020380700203803002083
:1001A0003803002070B5064600F074F90568304643
:1001B0000B30C408E400B44201D8002070BD686868
:1001C0002A46002818D00168A14211D30B462146C7
:1001D00008318B4208D3436801194B6003681B1B2D
:1001E0000B605160046001E041685160001D70BD0A
:1001F000024640680028E6D12146284600F052F920
:100200000028DCD170BD0000002203098B422CD3F2
:10021000030A8B4211D300239C464EE003460B4356
:100220003CD4002243088B4231D303098B421CD3B8
:10023000030A8B4201D394463FE0C3098B4201D3AA
:10024000CB01C01A524183098B4201D38B01C01AE2
:10025000524143098B4201D34B01C01A5241030959
:100260008B4201D30B01C01A5241C3088B4201D308
:10027000CB00C01A524183088B4201D38B00C01AB5
:10028000524143088B4201D34B00C01A5241411ADC
:1002900000D201465241104670475DE0CA0F00D0BF
:1002A0004942031000D3404253409C4600220309B8
:1002B0008B422DD3030A8B4212D38901FC2212BA3E
:1002C000030A8B420CD3890192118B4208D3890116
:1002D00092118B4204D389013AD0921100E089092E
:1002E000C3098B4201D3CB01C01A524183098B420F
:1002F00001D38B01C01A524143098B4201D34B01F8
:10030000C01A524103098B4201D30B01C01A52415A
:10031000C3088B4201D3CB00C01A524183088B42E1
:1003200001D38B00C01A5241D9D243088B4201D36A
:100330004B00C01A5241411A00D2014652411046A8
:1003400063465B1001D34042002B00D54942704701
:1003500063465B1000D3404201B50549002802DC2A
:10036000491C084000E00846C046C04602BD00BF28
:10037000FFFFFF7F704770477047000030B50346AE
:10038000CA02400D1043164D164C0A1502D02043E8
:10039000002A06DBAA1A002A12DDD040FF2A0BDC55
:1003A00030BD5205520D01D140004008AA1A07D4B1
:1003B000D0404042FF2A01DD002030BD0028FCDD96
:1003C0004A00002B01D0012000E00020101801227B
:1003D0005205D042F0D8C817C043604030BD00007D
:1003E0001E040000000000801F22030C02D10F2217
:1003F000000402D0030E03D004E000200146704741
:100400000002083A030F01D10001121F830F01D12E
:100410008000921E002801DB4000521E1205511878
:100420004205C012411810467047C10FC90700D0DD
:100430004042012292071143D6E701218907D3E701
:100440000121C9050123411842001B06D3185B0E88
:100450000AD0C1100722D206891840075242D14261
:1004600001D5520089187047090208D50146002AB3
:1004700003D0C10FC90700207047104670474202E1
:1004800002D0002002497047072109050143F4E723
:100490000000F87F00487047180000207047704740
:1004A0007047704738B504460A4600206946C04682
:1004B000C046002805D002462046009900F08AFA7E
:1004C000012038BD10B5012000F09EFA10BDF8B52E
:1004D000C046C046054600200C461020C0460646D1
:1004E000A819A0420DD9324669460020C046C04630
:1004F000070001D100F088FA0098A04200D005461C
:10050000C419FFF7C7FFF61D07460560F008C000D5
:100510004619284600F008F8B44204D0314638683D
:10052000A21B00F057FAF8BD002101604160806015
:1005300070471020704770B50446051FFFF7AAFFEB
:100540000068002C1AD0446801E020466468002C42
:1005500001D0AC42F9D301680A18AA4204D12A6832
:1005600005468918016000E0456028684119A142EC
:1005700005D16168696021684018286070BD6C60B1
:1005800070BD0000F0B50C46871A9C410D46861AD6
:100590009D4103D2C01BA141D21963410D0D1F0D16
:1005A000C94EEC1BAE435CD07F057F0D0026002FAB
:1005B00051D02D05AC46A943DD020123ED0A1B05F0
:1005C0001D4320231B1B24D41746E74038187141D4
:1005D0002F46E740CC199D402818314661410C0D4B
:1005E00027D161449A4013D50023401C5941520041
:1005F0000ED14008400001224B005205D34207D3E0
:1006000005204007C14201D5B04900E0B04930465D
:10061000F0BD6B00002A00D001229A181F23203C55
:100620001B1B01D5002302E0E540281871410C0D89
:10063000D7D0012424050919C407CD07400849086B
:10064000E40F28436144002CD5D00024401C6141B4
:100650009A40D0D1CDE76A05520DD9D1C90FC9074B
:10066000D5E79C4D4E00002801D0012400E0002475
:1006700034195F00002A01D0012600E00026BE19CF
:10068000954FAC420CD8AE420AD8B44206D00125F0
:100690006D05EC42BCD010461946F0BD9942FCD025
:1006A00000203946F0BDF0B51FB40C460F46811A44
:1006B0009F412546861A9D4106D20125ED076F40D0
:1006C000401ABC4152187B41210D1E0D8D1BAC46BA
:1006D0007D4D8D437ED075056D0D7CD00D05AE46EC
:1006E000AC431B031B0B794D52429D4120236646B0
:1006F0009B1B14D31746F74038180026009074410E
:1007000060462F460741E41900989D40281866412D
:1007100016D4714671189A4025D5012320E093180C
:100720002A466A415200002B00D0521C1E23203E54
:100730009B1B002B61DD3541EE1728186641E8D57B
:10074000001876415B1C9A4000D3401C4B05F318FF
:100750001524E34010D3002B52D071467118D30FEB
:10076000C01802D3491C05B0F0BD0123DB079A4233
:10077000F9D140084000F6E701225205B21801D134
:10078000002853D00123CC0ADB029943891E002A9A
:1007900008D1020C03D0020C0004103902E002461A
:1007A000002020390023550B05D112020823550BD8
:1007B00001D152010D23550C01D112011B1DD50C85
:1007C00001D192009B1C150D01D152005B1C20250C
:1007D000EE1A01E02CE022E00546F5401543984072
:1007E000CA1AE10769181305C918002ABBDA0320E1
:1007F00040070818C10FC9070FE071466118B2E73A
:10080000F10740080843711071444A000CD00123DD
:100810005B059A42A7D2C90FC9070020A3E7490583
:10082000490D26D1002001E00028F4D100219AE7EB
:10083000284D6600002801D0012100E00021711838
:100840005F00002A01D0012600E00026BE19224FD9
:10085000A94210D8AE420ED8B14208D001256D058C
:10086000E94206D01946A802414010467BE79C4267
:1008700001D0214677E70020394674E710B50C46D1
:100880005C4005D50124E4076340FFF70CFF10BD71
:10089000FFF778FE10BD30B40C465C4004D501244F
:1008A000E407634030BC6DE630BCFCE670B5012463
:1008B000E40761400D465D4002D4FFF763FE70BD62
:1008C0006340FFF7F0FE70BDFF0700000000F0FF7F
:1008D0000000F07F0000E0FF0000F87FF0B501238A
:1008E0000A0DDB0200249A43E4430025002A28D0A5
:1008F0005B1E9A4223D05B10D61AA64228DB721CDC
:1009000048D0342E18D20222142E2BD822D00B46D7
:100910000D36B34001D100280FD00024701E0B46C5
:100920008340DB0FF2412846551EA943002B03D01C
:100930008918002C00D09143F0BD0124EEE79A42C3
:1009400039D04A000243F7D0C90FC9072846F0BD85
:10095000002223E00122C30F400001D00024E2E77F
:100960000124E0E70346133EB34011D00023741E78
:100970000746A740FC0FF2411746521E9043002C39
:10098000E5D0002B00D0521CC01969419043F0BD46
:100990000123ECE701220B0318430AD00023C90FFF
:1009A000C9072846002AF2D0002BF0D1054A11438E
:1009B000F0BD0123F3E70A0301D10028F8D000209D
:1009C0000149F0BD0000F03F0000F87F004870478B
:1009D0001000002010B50346406801E0034640685F
:1009E000002801D08842F9D31868C3188B4206D07A
:1009F000CB1CD808C000001D411A521A0146081D20
:100A00000A60FFF798FD10BD10B500F0B3F800F0D4
:100A1000ABF810BDF8B5264C4E00069DA6420AD88C
:100A2000A64201D1002806D15E00A64203D8A64204
:100A30000AD1002A08D00D242404254233D02946A7
:100A4000002000F0BFF8F8BD0C461C4311D49942B9
:100A500007D0C81A02D3EFF30080F8BDEFF300808F
:100A6000F8BD801A02D3EFF30080F8BDEFF30080E9
:100A7000F8BD09242407E5008B4207D0581A02D399
:100A8000EFF3008006E0EFF3008007E0101A03D3D5
:100A9000EFF30080A04303E0EFF30080A04328437E
:100AA00080F30088F8BD009500F0A4F8F8BD0000C0
:100AB0000000E0FF10B5FF231B0644009C421DD838
:100AC0004C009C421AD80346124A0B4307D4401AE2
:100AD00002D3EFF3008010BDEFF3008010BD081AC1
:100AE00003D3EFF30080904305E0EFF30080012192
:100AF0009043C907084380F3008810BD0D231B04F1
:100B00001A4204D01146002000F05CF810BD00F03D
:100B10007BF810BD0000009070477546FFF756FF48
:100B2000AE46050069465346C008C000854618B069
:100B300020B5FFF725FB60BCB64600260027C0C5E0
:100B4000C0C5C0C5C0C5C0C5C0C5C0C5C0C5403D85
:100B5000490849008D46704710B50446C046C04656
:100B60002046FFF7FCFA10BD10B5002801D000F0B8
:100B700053F810BD10B5012805D0002103A000F0E6
:100B800051F8012010BD09A1F8E700005349475270
:100B9000544D454D3A204F7574206F66206865614D
:100BA00070206D656D6F7279000000003A20486515
:100BB0006170206D656D6F727920636F72727570F0
:100BC00074656400C80212D54803400F002804D0A1
:100BD000C803C043012188407047EFF30080000143
:100BE000000903210907084380F3008870470020AB
:100BF0007047000010B500200249029A00F02CF85E
:100C000010BD00000000F87F10B5024800F024F885
:100C100010BD00000000C07F01491820ABBEFEE7F8
:100C20002600020070B505460C460A2000E06D1C47
:100C300000F041F8002D06D028780028F7D102E016
:100C4000641C00F038F8002C02D020780028F7D17E
:100C50000A2000F030F870BD10B50C461107090FDE
:100C6000092904D00A290AD008290CD104E0114628
:100C70000820FFF7A7FF06E0510606D501E0510660
:100C800001D50120C007214610BDD10607D50101BD
:100C90000909CC084907000E0006044309E0410F8A
:100CA00020024907000A0143200E00061D22D141FF
:100CB00001430846E7E708B5694608700320ABBE64
:100CC00008BD000080B584B0039025480078C007B7
:100CD000002823D0FFE7D9480168072211400023EC
:100CE00002901846019200F0DDFA02984168019ADC
:100CF0001140012000F0D6FA02988168019A114053
:100D0000022000F0CFFAD048006801990840042280
:100D100000901046009900F0C5FAFFE7039800F034
:100D200023F810480168FF22914301600168042202
:100D300011430160C34801680F22914301600168BB
:100D4000012212021143016062B6082000F080F90E
:100D5000BE48016802221143016004B080BDC04654
:100D6000040000203040024082B00190684600211B
:100D70000170FFE76846007802280CDCFFE7019865
:100D8000694609788900074A4250FFE70098401CED
:100D900069460870EEE701980021017301984173DC
:100DA00002B07047FFFF000080B582B005480068C0
:100DB00001A9088000F0D6FE0348402100F022FF80
:100DC00002B080BD0C3800401408004880B584B0E3
:100DD00002900298401E000E002803D0FFE7012079
:100DE000039013E00298401E0A4908600020C143A6
:100DF000032201900846114600F040F90648019987
:100E000001600648072202600391FFE7039804B0DF
:100E100080BDC04614E000E018E000E010E000E013
:100E200080B504480168491C0160006800F060FA60
:100E300080BDC0463001002080B586B000200590FE
:100E4000049003900290344800680C2108400590FB
:100E500005980028019008D0FFE70198042808D0E1
:100E6000FFE70198082808D044E02E482C4901608B
:100E700044E02C482A49016040E0274801680F22DD
:100E800093041940049100680321C90308400390AA
:100E90000498800C801C0490204800681040401C7E
:100EA0000290039801210904884209D1FFE70299C1
:100EB0001B48FFF7A9F9049941431A48016018E05B
:100EC00003980321C903884209D1FFE70299164814
:100ED000FFF79AF9049941431248016008E002992A
:100EE0000F48FFF791F9049941430E480160FFE76D
:100EF000FFE703E00B480A490160FFE70648006886
:100F0000C0B200090949085C0590059805490A68BE
:100F1000C2400A6006B080BD041002402C1002409E
:100F200000127A0000000020006CDC02B0240008EF
:100F30007047000004480168491C016003480168CB
:100F400001229143016070472C01002010480140AC
:100F500080B582B037480068800700280ED5FFE7CB
:100F60003548016803221143016034480021816043
:100F70004160016001730121417359E02E4801680D
:100F80000122114301602D48007B0028019008D008
:100F9000FFE70198012813D0FFE7019802281ED02F
:100FA00027E02748006825490860264801680F2285
:100FB000914301600168012252021143016018E06F
:100FC0001F4800681D4948601E4801680F22914370
:100FD000016001680122D2021143016009E0184852
:100FE000006816498860174801680F229143016024
:100FF000FFE71248017B491C0173007B022809DCD2
:10100000FFE7124801680222114301600B480021EA
:1010100041730DE009480121417301684268891854
:10102000806808180321FFF7EFF807490860FFE719
:1010300002B080BD0C400240084002407000002019
:101040003C40024028400240040100200040024091
:1010500081B001466A461070107840B2002809D469
:10106000FFE7684600781F210840012181400248BF
:101070000160FFE701B0704700E100E070B582B0A9
:10108000024601AB18700091187840B2002817D4BE
:10109000FFE701A8017849B20322D2431140184B5F
:1010A000C958007840B28407E40EFF25A540A94343
:1010B000009DAD01EDB2A54029431040C1501AE09A
:1010C00001A801780F22114008390323DB4319409E
:1010D0000A4C0959007840B28507ED0EFF26AE4054
:1010E000B143009EB601F6B2AE403143104008381D
:1010F00018400151FFE702B070BDC0461CED00E092
:1011000000E400E0C7480068012108407047C0467D
:1011100081B000200090FFE7009807280ADCFFE775
:1011200000988000714900220A50FFE70098401C97
:101130000090F1E701B07047B0B50B480121017094
:101140006A48016842688368C468084DEC60AB6017
:101150006A602960016942698369C069E861AB61BD
:101160006A612961B0BDC046B8000020940000202B
:1011700080B584B000200390FFE7039803280ADCC1
:10118000FFE703982B49096800F08CF8FFE7039804
:10119000401C0390F1E727480168491E0122029094
:1011A0001046019200F07EF802980168491C0198EF
:1011B00000F078F804B080BD80B584B0052001212E
:1011C0000390029100F06EF806200190029900F061
:1011D00069F80398019900F065F80198019900F009
:1011E00061F80398039900F05DF80198039900F005
:1011F00059F810480068052805D0FFE70D48006839
:1012000006280AD1FFE707200621009000F04AF8DF
:101210000521009800F046F8FFE70648006801281D
:1012200005D1FFE70720012100F03CF8FFE704B0FB
:1012300080BDC0460800002080B582B001900198B2
:101240000421405E40420090FFE70098019904228B
:10125000895E88420FDCFFE70198008800B201999F
:101260000222895E009A891800F01CF8FFE70098B6
:10127000401C0090E9E702B080BD000083B00290FE
:10128000019100200090019802998900405800992E
:10129000014300910098D1490A6802430A6003B0F3
:1012A0007047C04682B001900091009807280CDC7E
:1012B000FFE70098002808D4FFE70198002804D42D
:1012C000FFE70198082801DBFFE70DE00098012106
:1012D0000A4682401202019B99400A43800003495A
:1012E0000B5813430B50FFE702B070470801002072
:1012F000F0B58FB00E9047480168474A1140016031
:1013000046490B68464C23400B60464B1D6810262F
:10131000F7433D401D601D680D9020200C90C04398
:1013200005401D600D9D2D680B9001200A90C003A3
:1013300005430D9805600D6825400D601D6835401A
:101340002D090E9809903848089007912946099D63
:1013500006922A46059404930396029700F05EFDD8
:10136000049801680C9A114049090E9A089B0833A9
:10137000184600F053FD0D980168069A114001606F
:1013800007990B68059C23400B60049B1D68029E17
:1013900035401D601D680B9F3D401D600568154070
:1013A00005600D680A98000305430D601868039DE9
:1013B000284001090E9A0898103000F02FFD04987B
:1013C00001680C9A114049090E9A089B1833184677
:1013D00000F024FD0D980168069A114001600799FC
:1013E0000B68059C23400B60049B1D68029E3540E2
:1013F0001D601D680B9F3D401D60FFF783FE0E9A28
:101400000899203101900846019900F007FD0FB0BE
:10141000F0BDC04614000048FF7FFFFF14080048DD
:10142000FFEFFFFF10000048C800002080B582B029
:1014300000F0D2FBFFF77CFDFFF7FEFC0F480068D1
:101440007D21C900FEF7E0FEFFF7C0FC0C49072232
:101450000A60019000F038FC00F014F800F0DCFBAA
:1014600000F072F800F046F800F01EF900F0B8F84D
:10147000002000F0FDFB02B080BDC046000000204F
:1014800010E000E070B5714801680522530419436B
:1014900001606F4801680323994301600168552486
:1014A00024032143016012490C6801256E02344077
:1014B0000C6069490C680F263604B4430C6009219E
:1014C000C9060C68AE0734430C600C681E02B443B6
:1014D0000C600C689B029C430C603F490B685202F5
:1014E00013430B6001682A061143016070BDC046BA
:1014F000040800480C48002101800C4A072313808F
:1015000001235380438093808380094A10600948F7
:10151000094A02604260094A8260094AC260094879
:101520000160818083717047F8000020FE00002078
:10153000900000208000002000004040CDCC4C3EB8
:10154000CDCCCC3DBC00002070B5404801680322E2
:101550005204114301603C4801680122930319437E
:10156000016017480168016001680160154816496B
:1015700001600F210902154B196015490C681125EE
:10158000ED062C430C600921C9060C68160434438F
:101590000C6010490C682C430C600F490C68520415
:1015A00014430C6001684022114301601868104325
:1015B00018601A20FFF74CFD08480021016070BD3B
:1015C00024040048003800403F0300000438004075
:1015D000000400480C0400480C0000480C3800408F
:1015E00010B5194801680122930419430160174896
:1015F00001680323DB0419430160154801680523D2
:101600005B051943016013480168202421430160F0
:1016100011480168194301601048016821430160C5
:101620000F4801689303194301600E4801681302D3
:101630001943016001681203114301600A480168FF
:101640001943016010BDC0461C1002401410024036
:1016500000080048000C00480C0800480C0C00482A
:101660000848004024080048200C00480B480C495A
:1016700001600C4801680822914301600521016066
:101680007047C046054806490160064801680422C3
:1016900091430160092101607047C0460C48004039
:1016A000881300000048004080B50D480168012201
:1016B0009304194301600B480B4901600B48026019
:1016C0000B4801689123194301600A4801681143DE
:1016D00001601620FFF7BCFC07480021016080BDB7
:1016E0001810024028480140B70B00002C48014068
:1016F000004801400C4801402C01002080B50648FC
:1017000001680322114301600820FFF7A1FC034890
:101710000349016080BDC0460440024000400240D1
:10172000C1D0001180B582B00190FFF7EBFC00281A
:1017300001D0FFE7FFE73748002101703648006815
:1017400000F088F835484078C00700282ED0FFE721
:1017500033480068092806D1FFE730483F2101706F
:1017600000F042FBFFE72E4800680A2812D1FFE78D
:101770002B4800210160084600F07AFA052000900D
:1017800000F056FC00F0CAF9009800F051FC00F09F
:10179000C5F906E093480068E849087000F024FBAA
:1017A000FFE71F480168491C01601AE000F0B6F924
:1017B000E24800783F2807D1FFE7012000F058FAFF
:1017C0000A2000F035FC05E0DC4800780021FFF736
:1017D00069FDFFE7124800680B2801DBFFE7FFE720
:1017E000FFE70D4800680F490968401A652808D3CB
:1017F000FFE70D48FFF766FA0748006809490860E7
:10180000FFE7FFF799FCFFF783FC0A2000F010FCCC
:1018100002B080BD0400002030010020340100200F
:10182000B4000020F00000207000002080B584B0DB
:1018300000200390042101900846FEF7B3FC0290BB
:10184000029801990160FFF7F1FDFFE70298FFF7A9
:1018500069FFFBE710B584B00390AE48006801282B
:1018600051D1FFE7A8482121405CC007002813D0D0
:10187000FFE7A5482221405CC00700280CD0FFE705
:10188000F5482221425C01231C46944344549D4860
:1018900001788B430370FFE7039851490968401AA8
:1018A0003D280FD3FFE79B48C079C007002803D02D
:1018B000FFE700F0DDFAFFE700F09CF803984849E5
:1018C0000860FFE74948FFF7B7FC9348FFF7B4FC0F
:1018D0004748016802900846FEF7B2FD00F000FCA0
:1018E000FEF74CFD02994A6801901046FEF7A8FDEC
:1018F00000F0F6FBFEF742FD0199009008460099C2
:10190000FFF7D0FC6AE083480068002865D1FFE754
:10191000039833490968401A3D2826D3FFE7CE488B
:10192000407CC00700280BD0FFE72E480068401C11
:10193000062805DCFFE72B480168491C0160FFE72A
:10194000C548407EC00700280BD0FFE72548006847
:10195000401E012805DBFFE722480168491E01609F
:10196000FFE703981E490860FFE7FFF701FCFFF758
:1019700023FCB948407AC00700280FD0FFE7194878
:10198000006801280AD1FFE76248012101600021B7
:10199000C17181605D4860490160FFE7AE48407AEF
:1019A000C007002818D0FFE70E480068052805D0BA
:1019B000FFE70C48006806280ED1FFE755480121D3
:1019C0000160C171002282604902074800F046F9B7
:1019D0004E4806490160FFE7FFE7FFE704B010BD8E
:1019E000F40000200800002014080048F80000203F
:1019F0008000002081B043480078C007002831D122
:101A0000FFE79548407CC007002812D0FFE73F4819
:101A100001680222895E00680422805E0818401C6A
:101A2000072806DCFFE7394800684188491C4180E7
:101A3000FFE78948407EC007002812D0FFE73348FF
:101A400001680222895E00680422805EC04340185B
:101A5000002806D4FFE72D4800684188491E4180D0
:101A6000FFE71CE02A480068072108400090009822
:101A7000264909680422895E401A00280ED4FFE72F
:101A80000098224909680422895E4018072805DC6D
:101A9000FFE700981D4909684880FFE7FFE71D48F8
:101AA0008079C00700282BD0FFE76B48407AC00739
:101AB00000280FD0FFE718480221415E0422805E13
:101AC0000818401C072805DCFFE713484188491C1B
:101AD0004180FFE760484078C00700280FD0FFE74B
:101AE0000D480221415E0422805EC0434018002858
:101AF00005D4FFE708484188491E4180FFE7FFE71A
:101B000001B0704736010020C8000020900000207E
:101B100004010020BC000020FE00002081B0002055
:101B20000090BA4800688006002805D5FFE76548A0
:101B30000088B7490870FFE701B070473401002002
:101B40000748016801221202914301607047C046B4
:101B50000348016801221202114301607047C04628
:101B60001400004880B582B017480068082804DBDC
:101B7000FFE7164801210170FFE714480078C0070D
:101B800000280DD0FFE712480078C007002801D1D7
:101B9000FFE716E00C48002101600C480170FFE7E8
:101BA000FFF7D6FFFFF7CCFF07480168094A01900D
:101BB00008461146FFF762FB01980168491C016065
:101BC000FFE702B080BDC046280100200C000020C5
:101BD000B80000209400002081B000200090FFE7B2
:101BE00000980E280BD8FFE70098C01C6F490A68C0
:101BF00002430A60FFE70098401C0090F0E701B044
:101C00007047C04682B001900091009801990A681F
:101C100082430A6002B0704781B000200090FFE765
:101C20000098042816DCFFE70098C0000A4908184D
:101C3000002242600098C000081842700098C0005E
:101C40000A540098C00008188270FFE70098401CF2
:101C50000090E5E701B07047C800002082B0019015
:101C60000091009801990A6802430A6002B0704727
:101C700010B582B0014601AA1070674800230360C6
:101C8000104804880094614C2468009400880090F7
:101C90006048008800905E48037013780124234058
:101CA00043701078C007002806D0FFE7FFF7EAFC72
:101CB00058480021018002E0FFF7D8FCFFE702B09E
:101CC00010BDC04624480040F0B583B035480168D7
:101CD0000122530419430160016803239C0421433A
:101CE000016031490C683F25EE4334400C602F4CB5
:101CF000276802902E48074027600F6801902A202D
:101D000007430F602068D10208432060294801681A
:101D1000294C214001600168284C2143016028487A
:101D200001680F242705B94301600168016002982A
:101D3000016817063943016022490F6804200743F0
:101D40000F60214801682402A14301601F48016817
:101D500002242143016001680524A14301601C485D
:101D600001682024A14301601A48016831400160E4
:101D700019480168019C2140016018480168294305
:101D80000160174801689B02194301600092FFF748
:101D9000B5FC14480168009A93021943016003B02E
:101DA000F0BDC0461410024000040048000800487E
:101DB000FFF3FFFF2004004800F0FFFF33030000A3
:101DC000200800483040024010400240040400480F
:101DD000040800480C0400480C08004808040048A7
:101DE00008080048204002400848006840060028D3
:101DF0000AD5FFE7064800780649088006480168CA
:101E0000402211430160FFE77047C0461C48004074
:101E100034010020284800402048004083B00B4691
:101E2000029001A8017000920098029949680F3150
:101E300088421AD9FFE7029840780299012210409F
:101E4000087001A800780299104048700298407804
:101E50001040029909781140401A411E88410299A8
:101E60008870009802994860FFE703B0704700004F
:101E700010B592B06848816802681190104600F071
:101E800015FA11990860C9681198406800F00EFAB7
:101E90001199486061488021FFF7B4FE11980068ED
:101EA0005F4900F0FAF8002808D1FFE75A480068B7
:101EB000002100F0E7F8002800D094E05648406880
:101EC000FEF7BEFA00F00CF9564A0223D35E042452
:101ED000125F9A18109010460F91FEF7A6FA109A0A
:101EE0000E9010460F9B0D9119460E9A0D9B00F017
:101EF000B3F8002826D1FFE747484068FEF7A0FA6C
:101F000000F0EEF8474A0223D35E0424125F9A1AC7
:101F10000C9010460B91FEF788FA0C9A0A90104626
:101F20000B9B099119460A9A099B00F0A0F800281A
:101F300008D1FFE738480068002100F0C6F8002803
:101F400044D1FFE734484068FEF77AFA00F0C8F859
:101F5000354A0223D35E0424125F9A180890104673
:101F60000791FEF762FA089A06901046079B0591C2
:101F70001946069A059B00F06FF800282DD1FFE75F
:101F800025484068FEF75CFA00F0AAF8264A0223CA
:101F9000D35E0424125F9A1A049010460391FEF750
:101FA00044FA049A02901046039B01911946029A42
:101FB000019B00F05CF800280FD1FFE7164800688D
:101FC000174900F075F8002807D1FFE7124881682B
:101FD0000122D2075140816004E00F48134901609B
:101FE0004160FFE7FFE70C4840680D4900F055F8F5
:101FF000002808D1FFE708484068002100F042F8B7
:10200000002807D1FFE70448C1680122D2075140E8
:10201000C160FFE712B010BD800000201408004826
:102020000000E040F8000020FE00002000004040DA
:1020300082B0019007480068019940180090FFE7BE
:10204000044800680099884201D9FFE700E0F7E7FB
:1020500002B070473001002010B500F08FF8EFF3A8
:1020600000804000800F012800D0002010BD10B576
:1020700000F0B6F8EFF30080800001D4012010BD1D
:10208000002010BD10B500F057F9EFF3008080007C
:1020900001D5012010BD002010BD10B500F04CF995
:1020A000EFF300804000800F012800D0002010BD19
:1020B00010B500F06BF9EFF300804000800F0128AD
:1020C00001D0012010BD002010BD10B500F05EF958
:1020D000EFF30080800001D4012010BD002010BD6E
:1020E000F0B513B406460199FEF7F8FB04460D4619
:1020F00002460B4630460199FEF7CDFB0646019895
:102100001B4B0F4600280CDA0022304600F068F81E
:102110000CD90022174B3046394600F093F81DD2F7
:1021200014E00022304600F05BF808D20022124B87
:1021300020462946FEF7AFFB04460D460EE000227E
:102140000C4B3046394600F07DF807D800220A4B88
:1021500020462946FEF792FB04460D46019A690087
:102160004908D20FD2072046114303B0F0BD00004A
:102170000000E0BF0000E03F0000F03F70B5012527
:102180002D050C001C4310D4EC4206D4AC420AD4FA
:10219000994200D070BD904270BDE94217D4EB4225
:1021A00015D4994270BD894270BDEC4206D5AC424F
:1021B000F9D58B4200D070BD824270BD6D004C00DD
:1021C000EC4204D25C00EC4201D28B4270BD034C65
:1021D00030B4FEF71FFC30BC70BD00BF1900130403
:1021E00070B501252D050C001C4310D4EC4206D41B
:1021F000AC420AD4994200D070BD904270BDE94211
:1022000017D4EB4215D4994270BD894270BDEC429F
:1022100006D5AC42F9D58B4200D070BD824270BD6C
:102220006D004C00EC4204D25C00EC4201D28B42C7
:1022300070BD034C30B4FEF7EDFB30BC70BD00BF89
:102240001900160470B501252D051C000C4310D48F
:10225000EC4206D4AC420AD48B4200D070BD82421C
:1022600070BDEB4217D4E94215D48B4270BD9B423E
:1022700070BDEC4206D5AC42F9D5994200D070BD94
:10228000904270BD6D005C00EC4204D24C00EC4208
:1022900001D2994270BD0FB40CBC03BC024C30B4E7
:1022A000FEF7B8FB30BC70BD1900160470B50125EF
:1022B000ED0704004C4020D4441A01D2001B091938
:1022C000C60D4B00F2B2FF2A29D01B0E2CD0000203
:1022D0000C0228432C43D31ADC40051910D2280ADB
:1022E00002D3401C6D0611D0761EF6058019FF2A18
:1022F00000DA70BDC00DC00570BD694000F076F811
:1023000001200543C541521C761CE8E764089C4047
:10231000C90161408900E7D10124A043E4E71B0E15
:10232000440200D0034870BD002AFCD1C00FC00792
:1023300070BD00BF0000C07F0123DB0502000A431F
:102340000DD4DA4203D49A4207D488427047D84267
:1023500014D4D94212D48842704780427047DA427E
:1023600003D59A42F9D5814270475B004200DA42B8
:1023700004D24A00DA4201D28142704710B5024AC3
:10238000FEF798FB10BD00BF090013040123DB0515
:1023900002000A430DD4DA4203D49A4207D4884299
:1023A0007047D84214D4D94212D488427047804230
:1023B0007047DA4203D59A42F9D5814270475B00F3
:1023C0004200DA4204D24A00DA4201D28142704726
:1023D00010B5024AFEF76EFB10BD00BF09001604DF
:1023E00070B50125ED0704004C4022D4441A02D2F6
:1023F0006C40001B0919C60D4B00F2B2FF2A4BD0EE
:102400001B0E50D000020C02A8432C43D31ADC4010
:10241000051B05D5AD0019D36D08761E521E37D0A9
:10242000F605280A01D2801970BD70416D0603D0EF
:1024300070BD6940FFF740FF9C40090261404900C0
:1024400001D0401E70BD0124A04370BD6D081DD099
:1024500001202B0C01D12D0410302B0E01D12D02A7
:1024600008302B0F01D12D01001DAB0F01D1AD00A4
:10247000801CEB0F01D16D00401C361A121A6D0042
:10248000680AF5054019012A02DB70BD002070BD05
:10249000C036300AC00770BD1B0E440201D1FF2BAD
:1024A00000D1024870BD002AF0D070BD0000C07F8E
:1024B00000000000000000000102030406070809F4
:1024C000E0240008000000201000000004010008C3
:1024D000F024000810000020280700002001000858
:1024E00000127A000100000001000000010000005D
:040000050800016D81
:00000001FF
