:020000040800F2
:10000000100700206D010008750100087701000845
:1000100000000000000000000000000000000000E0
:10002000000000000000000000000000790100084E
:1000300000000000000000007B010008B10600087D
:100040007F0100087F0100087F0100087F01000890
:100050007F0100087F0100087F0100087F01000880
:10006000C50700087F0100087F0100087F01000824
:100070007F0100087F0100087F0100087F01000860
:100080007F0100087F0100087F0100087F01000850
:100090007F0100087F0100087F0100087F01000840
:1000A0007F0100087F010008390600087F01000871
:1000B0007F0100087F0100087F0100087F01000820
:1000C00000F002F800F042F80CA030C808382418FC
:1000D0002D18671EA246AB4654465D46AC4201D180
:1000E00000F034F87E460F3EB6460FCC0126334270
:1000F00000D0FB1A3343A246AB461847380F000026
:10010000580F0000103A02D378C878C1FAD85207C5
:1001100001D330C830C101D504680C6070470000BD
:100120000023002400250026103A01D378C1FBD813
:10013000520700D330C100D50B6070471FB500983F
:10014000019900F038F91FBD10B510BD00F0B3F9EA
:100150001146FFF7F3FF00F023FE00F0CBF903B4E4
:10016000FFF7F2FF03BC00F0FBF9000007488047EF
:1001700007480047FEE7FEE7FEE7FEE7FEE7FEE78B
:1001800004480549054A064B70470000C1070008AE
:10019000C1000008100100201007002010030020FB
:1001A0001003002070B5064600F0E8F805683046F8
:1001B0000B30C408E400B44201D8002070BD686868
:1001C0002A46002818D00168A14211D30B462146C7
:1001D00008318B4208D3436801194B6003681B1B2D
:1001E0000B605160046001E041685160001D70BD0A
:1001F000024640680028E6D12146284600F0C6F8AD
:100200000028DCD170BD0000002203098B422CD3F2
:10021000030A8B4211D300239C464EE003460B4356
:100220003CD4002243088B4231D303098B421CD3B8
:10023000030A8B4201D394463FE0C3098B4201D3AA
:10024000CB01C01A524183098B4201D38B01C01AE2
:10025000524143098B4201D34B01C01A5241030959
:100260008B4201D30B01C01A5241C3088B4201D308
:10027000CB00C01A524183088B4201D38B00C01AB5
:10028000524143088B4201D34B00C01A5241411ADC
:1002900000D201465241104670475DE0CA0F00D0BF
:1002A0004942031000D3404253409C4600220309B8
:1002B0008B422DD3030A8B4212D38901FC2212BA3E
:1002C000030A8B420CD3890192118B4208D3890116
:1002D00092118B4204D389013AD0921100E089092E
:1002E000C3098B4201D3CB01C01A524183098B420F
:1002F00001D38B01C01A524143098B4201D34B01F8
:10030000C01A524103098B4201D30B01C01A52415A
:10031000C3088B4201D3CB00C01A524183088B42E1
:1003200001D38B00C01A5241D9D243088B4201D36A
:100330004B00C01A5241411A00D2014652411046A8
:1003400063465B1001D34042002B00D54942704701
:1003500063465B1000D3404201B50549002802DC2A
:10036000491C084000E00846C046C04602BD00BF28
:10037000FFFFFF7F704770477047000000487047DD
:1003800010000020704770477047704738B504462A
:100390000A4600206946C046C046002805D00246ED
:1003A0002046009900F066F8012038BD10B5012004
:1003B00000F07AF810BDF8B5C046C04605460020EA
:1003C0000C461020C0460646A819A0420DD9324658
:1003D00069460020C046C046070001D100F064F81D
:1003E0000098A04200D00546C419FFF7C7FFF61DCC
:1003F00007460560F008C0004619284600F008F8D6
:10040000B44204D031463868A21B00F033F8F8BD7E
:10041000002101604160806070471020704770B516
:100420000446051FFFF7AAFF0068002C1AD0446895
:1004300001E020466468002C01D0AC42F9D3016889
:100440000A18AA4204D12A6805468918016000E00A
:10045000456028684119A14205D161686960216839
:100460004018286070BD6C6070BD00000048704787
:100470000800002010B50346406801E003464068CC
:10048000002801D08842F9D31868C3188B4206D0DF
:10049000CB1CD808C000001D411A521A0146081D85
:1004A0000A60FFF7BCFF10BD10B500F031F800F096
:1004B00029F810BD70477546FFF7D8FFAE46050016
:1004C00069465346C008C000854618B020B5FFF7FE
:1004D00057FE60BCB64600260027C0C5C0C5C0C5D3
:1004E000C0C5C0C5C0C5C0C5C0C5403D490849005C
:1004F0008D46704710B50446C046C0462046FFF7FB
:100500002EFE10BD10B5002801D000F029F810BD56
:1005100010B5012805D0002103A000F027F8012024
:1005200010BD09A1F8E7000053494752544D454D0D
:100530003A204F7574206F662068656170206D6584
:100540006D6F7279000000003A2048656170206D7F
:10055000656D6F727920636F727275707465640077
:1005600001491820ABBEFEE72600020070B5054623
:100570000C460A2000E06D1C00F012F8002D06D099
:1005800028780028F7D102E0641C00F009F8002C5C
:1005900002D020780028F7D10A2000F001F870BDC1
:1005A00008B5694608700320ABBE08BD80B582B0AF
:1005B0000190019800F020F80E480168FF22914355
:1005C00001600168022211430160CA4801680F23DB
:1005D00099430160016810231943016062B6082045
:1005E000009200F08BF9C4480168009A1143016041
:1005F00002B080BD3040024082B0019068460021C8
:100600000170FFE76846007802280CDCFFE70198DC
:10061000694609788900074A4250FFE70098401C64
:1006200069460870EEE70198002101730198417353
:1006300002B07047FFFF000080B582B00548006837
:1006400001A9088000F0D8FB0348402100F026FCF7
:1006500002B080BD0C3800401408004880B584B05A
:1006600002900298401E000E002803D0FFE70120F0
:10067000039013E00298401E0A4908600020C1431D
:10068000032201900846114600F04EF906480199F0
:1006900001600648072202600391FFE7039804B057
:1006A00080BDC04614E000E018E000E010E000E08B
:1006B00080B504480168491C0160006800F0E8F951
:1006C00080BDC0460801002080B586B0002005909E
:1006D000049003900290344800680C210840059073
:1006E00005980028019008D0FFE70198042808D059
:1006F000FFE70198082808D044E02E482C49016003
:1007000044E02C482A49016040E0274801680F2254
:1007100093041940049100680321C9030840039021
:100720000498800C801C0490204800681040401CF5
:100730000290039801210904884209D1FFE7029938
:100740001B48FFF761FD049941431A48016018E016
:1007500003980321C903884209D1FFE7029916488B
:10076000FFF752FD049941431248016008E00299E5
:100770000F48FFF749FD049941430E480160FFE728
:10078000FFE703E00B480A490160FFE706480068FD
:10079000C0B200090949085C0590059805490A6836
:1007A000C2400A6006B080BD041002402C10024016
:1007B00000127A0000000020006CDC022410000807
:1007C0007047000010B586B04648006880070028D2
:1007D00013D5FFE7444801680322114301604348F1
:1007E0000021816041600160017301214173062095
:1007F0000590059900F026F971E03B480168012257
:10080000114301603948007B0028049008D0FFE7BD
:100810000498012812D0FFE7049802281CD025E094
:100820003348006831490860324801680F2291431B
:100830000160016820221143016017E02C48006824
:100840002A4948602B4801680F22914301600168E2
:1008500040221143016009E025480068234988606F
:10086000244801680F2291430160FFE71F48017B84
:10087000491C0173007B022809DCFFE71E48016860
:100880000222114301601948002141731CE01748FE
:1008900001214173026807231A4000240390204677
:1008A00002911146019300F0CDF803984168019A36
:1008B0001140029800F0C6F803988168019A11402F
:1008C000022000F0BFF8FFE70848007B072108403E
:1008D000032100900846009900F0B4F8FFE706B045
:1008E00010BDC0460C400240084002406800002095
:1008F00038400240284002400040024081B001469A
:100900006A461070107840B2002809D4FFE76846A4
:1009100000781F2108400121814002480160FFE763
:1009200001B0704700E100E070B582B0024601AB53
:1009300018700091187840B2002817D4FFE701A87A
:10094000017849B20322D2431140184BC9580078AC
:1009500040B28407E40EFF25A540A943009DAD01E8
:10096000EDB2A54029431040C1501AE001A801781A
:100970000F22114008390323DB4319400A4C09595F
:10098000007840B28507ED0EFF26AE40B143009ED1
:10099000B601F6B2AE40314310400838184001515C
:1009A000FFE702B070BDC0461CED00E000E400E0CF
:1009B0007E480068012108407047C04681B0002091
:1009C0000090FFE7009807280ADCFFE70098800006
:1009D0002E4900220A50FFE70098401C0090F1E7E2
:1009E00001B07047B0B50B4801210170274801687C
:1009F00042688368C468084DEC60AB606A60296037
:100A0000016942698369C069E861AB616A61296112
:100A1000B0BDC046AC0000208C00002083B0029026
:100A20000191002000900198029989004058009996
:100A3000014300910098C6490A6802430A6003B066
:100A40007047C04682B001900091009807280CDCE6
:100A5000FFE70098002808D4FFE70198002804D495
:100A6000FFE70198082801DBFFE70DE0009801216E
:100A70000A4682401202019B99400A4380000349C2
:100A80000B5813430B50FFE702B07047E4000020FF
:100A9000F0B58DB00C90D7480168414A1140016013
:100AA00040490B68404C23400B60404B1D681026AA
:100AB000F7433D401D601D680B9020200A90C04305
:100AC00005401D600B9D2D68099001200890C00312
:100AD00005430B9805600D6825400D601D68354085
:100AE0002D090C9807903248069005912946079DDC
:100AF00004922A46039402930196009700F054FA58
:100B0000029801680A9A114049090C9A069B083319
:100B1000184600F049FA0B980168049A11400160E8
:100B200005990B68039C23400B60029B1D68009E87
:100B300035401D601D68099F3D401D6005681540DA
:100B400005600D680898000305430D601868019D55
:100B5000284001090C9A0698103000F025FA0298F6
:100B600001680A9A114049090C9A069B18331846E5
:100B700000F01AFA0B980168049A11400160059977
:100B80000B68039C23400B60029B1D68009E354050
:100B90001D601D68099F3D401D600DB0F0BDC04641
:100BA000FF7FFFFF14080048FFEFFFFF1000004821
:100BB000B800002070B582B000F058F9F048016824
:100BC0000522530419430160B34801680323994384
:100BD0000160016855242403214301601E490C680B
:100BE00001256E0234400C601C490C680F26360447
:100BF000B4430C600921C9060C68AE0734430C608D
:100C00000C681E02B4430C600C689B029C430C6091
:100C1000E2490B68520213430B6001682A06114334
:100C20000160FFF7CDFDFFF74FFD0D4800687D2106
:100C3000C900FFF7E9FAFFF711FD0A4907220A6028
:100C4000019000F035F900F039F800F00DF800F0EF
:100C500051F902B070BDC046040800480C080048B5
:100C60000000002010E000E00C48002101800C4A48
:100C70000723138001235380438093808380094A94
:100C800010600948094A02604260094A8260094AC4
:100C9000C26009480160818083717047D8000020DC
:100CA000DE00002088000020780000200000404086
:100CB000CDCC4C3ECDCCCC3DB000002070B5B04882
:100CC000016803225204114301601A48016801229D
:100CD00093031943016018480168016001680160CD
:100CE0001648174901600F210902164B1960164971
:100CF0000C681125ED062C430C600921C9060C680F
:100D0000160434430C6011490C682C430C60A34951
:100D10000C68520414430C600168402211430160C6
:100D20001868104318601A20FFF7E8FD08480021F2
:100D3000016070BD1C1002402404004800380040CF
:100D40003F03000004380040000400480C04004841
:100D50000C38004080B50648016803221143016049
:100D60000820FFF7CBFD03480349016080BDC04662
:100D70000440024000400240C1D0007080B582B003
:100D80000190FFF715FE002801D0FFE7FFE7FFF70E
:100D900029FEFFF713FE282000F030F902B080BDD5
:100DA00080B584B000200390042101900846FFF72D
:100DB000F9F90290029801990160FFF7FBFEFFE745
:100DC0000348FFF7F3FB0298FFF7D8FFF8E7C046A8
:100DD0006800002007480168012212029143016067
:100DE0007047C046034801680122120211430160A6
:100DF0007047C0461400004880B582B017480068AC
:100E0000082804DBFFE7164801210170FFE71448BA
:100E10000078C00700280DD0FFE712480078C0070F
:100E2000002801D1FFE716E00C48002101600C48C2
:100E30000170FFE7FFF7D6FFFFF7CCFF0748016817
:100E4000094A019008461146FFF7E8FD019801683C
:100E5000491C0160FFE702B080BDC04604010020CC
:100E600004000020AC0000208C00002081B0002095
:100E70000090FFE700980E280BD8FFE70098C01CF1
:100E800005490A6802430A60FFE70098401C009089
:100E9000F0E701B07047C0460008004882B00190FA
:100EA0000091009801990A6882430A6002B0704775
:100EB00081B000200090FFE70098032816DCFFE7D0
:100EC0000098C0000A490818002242600098C0003B
:100ED000081842700098C0000A540098C000081812
:100EE0008270FFE70098401C0090E5E701B0704772
:100EF000B8000020B0B582B0214801680122530437
:100F0000194301600921C9060B681E4C23400B6080
:100F10000B6855256D022B430B601B490B689BB278
:100F20000B600B68194D2B430B60016812061143CF
:100F300001601748016802221143016015480168E9
:100F4000F02291430160144801688022114301603E
:100F500001687023994301601048016821400160D5
:100F60000F480168FF231B02194301600192FFF73C
:100F7000F1FE0C480168019A1143016002B0B0BD56
:100F800014100240FF00FFFF200000480000333330
:100F90003040024010400240040000480C0000486D
:100FA000080000482040024083B00B46029001A890
:100FB000017000920098029949680F3188421AD94D
:100FC000FFE702984078029901221040087001A8BA
:100FD00000780299104048700298407810400299B9
:100FE00009781140401A411E884102998870009882
:100FF00002994860FFE703B07047000082B001909B
:1010000007480068019940180090FFE7044800680D
:101010000099884201D9FFE700E0F7E702B0704786
:10102000080100200000000000000000010203048D
:1010300006070809541000080000002008000000FE
:10104000040100085C1000080800002008070000E8
:0C1050002001000800127A0001000000DE
:040000050800016D81
:00000001FF
