:020000040800F2
:10000000000700206D010008750100087701000855
:1000100000000000000000000000000000000000E0
:10002000000000000000000000000000790100084E
:1000300000000000000000007B0100082D06000801
:100040007F0100087F0100087F0100087F01000890
:100050007F0100087F0100087F0100087F01000880
:10006000410700087F0100087F0100087F010008A8
:100070007F0100087F0100087F0100087F01000860
:100080007F0100087F0100087F0100087F01000850
:100090007F0100087F0100087F0100087F01000840
:1000A0007F0100087F010008AD0500087F010008FE
:1000B0007F0100087F0100087F0100087F01000820
:1000C00000F002F800F042F80CA030C808382418FC
:1000D0002D18671EA246AB4654465D46AC4201D180
:1000E00000F034F87E460F3EB6460FCC0126334270
:1000F00000D0FB1A3343A246AB461847B80E0000A7
:10010000D80E0000103A02D378C878C1FAD8520746
:1001100001D330C830C101D504680C6070470000BD
:100120000023002400250026103A01D378C1FBD813
:10013000520700D330C100D50B6070471FB500983F
:10014000019900F038F91FBD10B510BD00F0B3F9EA
:100150001146FFF7F3FF00F0D5FD00F0CBF903B433
:10016000FFF7F2FF03BC00F0FBF9000007488047EF
:1001700007480047FEE7FEE7FEE7FEE7FEE7FEE78B
:1001800004480549054A064B704700003D07000832
:10019000C10000080001002000070020000300202B
:1001A0000003002070B5064600F0E8F80568304608
:1001B0000B30C408E400B44201D8002070BD686868
:1001C0002A46002818D00168A14211D30B462146C7
:1001D00008318B4208D3436801194B6003681B1B2D
:1001E0000B605160046001E041685160001D70BD0A
:1001F000024640680028E6D12146284600F0C6F8AD
:100200000028DCD170BD0000002203098B422CD3F2
:10021000030A8B4211D300239C464EE003460B4356
:100220003CD4002243088B4231D303098B421CD3B8
:10023000030A8B4201D394463FE0C3098B4201D3AA
:10024000CB01C01A524183098B4201D38B01C01AE2
:10025000524143098B4201D34B01C01A5241030959
:100260008B4201D30B01C01A5241C3088B4201D308
:10027000CB00C01A524183088B4201D38B00C01AB5
:10028000524143088B4201D34B00C01A5241411ADC
:1002900000D201465241104670475DE0CA0F00D0BF
:1002A0004942031000D3404253409C4600220309B8
:1002B0008B422DD3030A8B4212D38901FC2212BA3E
:1002C000030A8B420CD3890192118B4208D3890116
:1002D00092118B4204D389013AD0921100E089092E
:1002E000C3098B4201D3CB01C01A524183098B420F
:1002F00001D38B01C01A524143098B4201D34B01F8
:10030000C01A524103098B4201D30B01C01A52415A
:10031000C3088B4201D3CB00C01A524183088B42E1
:1003200001D38B00C01A5241D9D243088B4201D36A
:100330004B00C01A5241411A00D2014652411046A8
:1003400063465B1001D34042002B00D54942704701
:1003500063465B1000D3404201B50549002802DC2A
:10036000491C084000E00846C046C04602BD00BF28
:10037000FFFFFF7F704770477047000000487047DD
:1003800010000020704770477047704738B504462A
:100390000A4600206946C046C046002805D00246ED
:1003A0002046009900F066F8012038BD10B5012004
:1003B00000F07AF810BDF8B5C046C04605460020EA
:1003C0000C461020C0460646A819A0420DD9324658
:1003D00069460020C046C046070001D100F064F81D
:1003E0000098A04200D00546C419FFF7C7FFF61DCC
:1003F00007460560F008C0004619284600F008F8D6
:10040000B44204D031463868A21B00F033F8F8BD7E
:10041000002101604160806070471020704770B516
:100420000446051FFFF7AAFF0068002C1AD0446895
:1004300001E020466468002C01D0AC42F9D3016889
:100440000A18AA4204D12A6805468918016000E00A
:10045000456028684119A14205D161686960216839
:100460004018286070BD6C6070BD00000048704787
:100470000800002010B50346406801E003464068CC
:10048000002801D08842F9D31868C3188B4206D0DF
:10049000CB1CD808C000001D411A521A0146081D85
:1004A0000A60FFF7BCFF10BD10B500F031F800F096
:1004B00029F810BD70477546FFF7D8FFAE46050016
:1004C00069465346C008C000854618B020B5FFF7FE
:1004D00057FE60BCB64600260027C0C5C0C5C0C5D3
:1004E000C0C5C0C5C0C5C0C5C0C5403D490849005C
:1004F0008D46704710B50446C046C0462046FFF7FB
:100500002EFE10BD10B5002801D000F029F810BD56
:1005100010B5012805D0002103A000F027F8012024
:1005200010BD09A1F8E7000053494752544D454D0D
:100530003A204F7574206F662068656170206D6584
:100540006D6F7279000000003A2048656170206D7F
:10055000656D6F727920636F727275707465640077
:1005600001491820ABBEFEE72600020070B5054623
:100570000C460A2000E06D1C00F012F8002D06D099
:1005800028780028F7D102E0641C00F009F8002C5C
:1005900002D020780028F7D10A2000F001F870BDC1
:1005A00008B5694608700320ABBE08BD80B584B0AD
:1005B000084840210290019100F04AFCD3480068AD
:1005C00003A9088000F0C6FB0298019900F014FC12
:1005D00004B080BD1408004880B584B00290029831
:1005E000401E000E002803D0FFE70120039013E017
:1005F0000298401E0A4908600020C143032201906E
:100600000846114600F0DAF80648019901600648EC
:10061000072202600391FFE7039804B080BDC04643
:1006200014E000E018E000E010E000E080B50448CD
:100630000168491C0160006800F090F980BDC04667
:10064000F000002080B586B0002005900490039053
:100650000290344800680C21084005900598002855
:10066000019008D0FFE70198042808D0FFE701981F
:10067000082808D044E02E482C49016044E02C486A
:100680002A49016040E0274801680F22930419407D
:10069000049100680321C903084003900498800C6A
:1006A000801C0490204800681040401C0290039871
:1006B00001210904884209D1FFE702991B48FFF78D
:1006C000A3FD049941431A48016018E003980321EF
:1006D000C903884209D1FFE702991648FFF794FD44
:1006E000049941431248016008E002990F48FFF75E
:1006F0008BFD049941430E480160FFE7FFE703E0EB
:100700000B480A490160FFE706480068C0B20009CB
:100710000949085C0590059805490A68C2400A60C5
:1007200006B080BD041002402C10024000127A0076
:1007300000000020006CDC02940F000870470000ED
:1007400080B582B00E480068C007002815D0FFE7CA
:100750000C48012101600C480068019001980721B4
:100760000840062100900846009900F0D1F807489B
:100770000168022211430160FFE702B080BDC0465C
:100780000C40024008400240384002400040024015
:1007900081B001466A461070107840B2002809D432
:1007A000FFE7684600781F21084001218140024888
:1007B0000160FFE701B0704700E100E070B582B072
:1007C000024601AB18700091187840B2002817D487
:1007D000FFE701A8017849B20322D2431140184B28
:1007E000C958007840B28407E40EFF25A540A9430C
:1007F000009DAD01EDB2A54029431040C1501AE063
:1008000001A801780F22114008390323DB43194066
:100810000A4C0959007840B28507ED0EFF26AE401C
:10082000B143009EB601F6B2AE40314310400838E5
:1008300018400151FFE702B070BDC0461CED00E05A
:1008400000E400E08C480068012108407047C04681
:1008500084B002900191009202980099884203DDD1
:10086000FFE7009803900AE002980199884203DAB2
:10087000FFE70198039002E002980390FFE70398D6
:1008800004B0704781B000200090FFE7009807286F
:100890000ADCFFE7009880002F4900220A50FFE79A
:1008A0000098401C0090F1E701B07047B0B50B48CC
:1008B000012101702848016842688368C468084DB6
:1008C000EC60AB606A602960016942698369C06954
:1008D000E861AB616A612961B0BDC0469C0000203F
:1008E0007C00002083B002900191002000900198CC
:1008F0000299890040580099014300910098C54928
:100900000A6802430A6003B07047C0460C380040D2
:1009100082B001900091009807280CDCFFE7009856
:10092000002808D4FFE70198002804D4FFE70198C5
:10093000082801DBFFE70DE0009801210A4682400C
:100940001202019B99400A43800003490B5813434C
:100950000B50FFE702B07047CC000020F0B58DB01F
:100960000C90F6480168414A1140016040490B680B
:10097000404C23400B60404B1D681026F7433D4020
:100980001D601D680B9020200A90C04305401D602B
:100990000B9D2D68099001200890C00305430B981A
:1009A00005600D6825400D601D6835402D090C98C7
:1009B0000790D148069005912946079D04922A4642
:1009C000039402930196009700F0A6FA029801683A
:1009D0000A9A114049090C9A069B0833184600F000
:1009E0009BFA0B980168049A1140016005990B6805
:1009F000039C23400B60029B1D68009E35401D60D8
:100A00001D68099F3D401D600568154005600D6823
:100A10000898000305430D601868019D28400109EE
:100A20000C9A0698103000F077FA029801680A9A3A
:100A3000114049090C9A069B1833184600F06CFACD
:100A40000B980168049A1140016005990B68039C9A
:100A500023400B60029B1D68009E35401D601D6891
:100A6000099F3D401D600DB0F0BDC046FF7FFFFFF8
:100A700014080048FFEFFFFF1000004870B582B077
:100A800000F0A2F95A480168052253041943016095
:100A9000D848016803239943016001685524240361
:100AA000214301601E490C6801256E0234400C6030
:100AB0001C490C680F263604B4430C600921C90692
:100AC0000C68AE0734430C600C681E02B4430C6023
:100AD0000C689B029C430C604D490B685202134307
:100AE0000B6001682A0611430160FFF727FEFFF73C
:100AF000A9FD0D4800687D21C900FFF785FBFFF7C0
:100B00006BFD0A4907220A60019000F07FF900F0AE
:100B100033F800F00DF800F0A5F902B070BDC04642
:100B2000040800480C0800480000002010E000E025
:100B30000A48002101800A4907220A8001224A80CE
:100B400042808A808280074908600748074901601F
:100B50004160074981600749C1607047C0000020BB
:100B6000C6000020780000206800002000004040FF
:100B7000CDCC4C3ECDCCCC3D70B5DD4801680322D8
:100B80005204114301601B48016801229303194379
:100B9000016019480168016001680160174818493F
:100BA00001600F210902174B196017490C681125C4
:100BB000ED062C430C600921C9060C681604344369
:100BC0000C6012490C682C430C6011490C685204EB
:100BD00014430C60016840221143016018681043FF
:100BE00018601A20FFF7D4FD0A480021016070BD8B
:100BF000141002401C100240240400480038004039
:100C00003F03000004380040000400480C04004882
:100C10000C0000480C38004080B58AB00990354877
:100C2000C168089181680791416806910068059044
:100C3000FFF708FE002801D0FFE7FFE7002004903F
:100C4000FFE7049803284BDCFFE70498C0007F49C6
:100C500008184078C00700283DD0FFE70498022814
:100C600005D1FFE725480168491C0160FFE70498AA
:100C7000032805D1FFE721480168491E0160FFE70D
:100C80000498012805D1FFE71D480168491C01604F
:100C9000FFE70498002805D1FFE719480168491EBD
:100CA0000160FFE716480168002207230390084609
:100CB000114602921A460193FFF7CAFD0399086094
:100CC0000E480268009010460299019AFFF7C0FD95
:100CD00000990860FFE7FFE70498401C0490B0E724
:100CE000FFF7E4FDFFF7CEFD282000F03FF90AB042
:100CF00080BDC046A40F0008A0000020F80000201E
:100D0000F400002080B584B00020039004210190FD
:100D10000846FFF747FA0290029801990160FFF731
:100D2000ADFEFFE70298FFF777FFFBE70848016891
:100D300001221202914301607047C046140000482E
:100D40000348016801221202114301607047C04646
:100D50001400004880B582B017480068082804DBFA
:100D6000FFE7164801210170FFE714480078C0072B
:100D700000280DD0FFE712480078C007002801D1F5
:100D8000FFE716E00C48002101600C480170FFE706
:100D9000FFF7D6FFFFF7CAFF07480168094A01902D
:100DA00008461146FFF79EFD01980168491C016045
:100DB000FFE702B080BDC046EC0000200400002028
:100DC0009C0000207C00002081B000200090FFE704
:100DD00000980E280BD8FFE70098C01C05490A6848
:100DE00002430A60FFE70098401C0090F0E701B062
:100DF0007047C0460008004882B0019000910098FA
:100E000001990A6882430A6002B0704781B00020ED
:100E10000090FFE70098032816DCFFE70098C00069
:100E20000A490818002242600098C0000818427061
:100E30000098C0000A540098C00008188270FFE7AC
:100E40000098401C0090E5E701B07047A00000202A
:100E500082B001900091009801990A6802430A60EB
:100E600002B07047B0B582B0214801680722520431
:100E7000114301600921C9060A68A0231A430A60C8
:100E80001C490A6833231B021A430A601A490A687C
:100E900008231A430A6001680122140621430160F5
:100EA00016480168802421430160154801684024E8
:100EB0002143016013480168022421430160124864
:100EC0000168C025A9430160104801681143016011
:100ED00018460194FFF75CFC0D4801680D4A114368
:100EE00001600168019A1143016002B0B0BDC046C3
:100EF0001410024020000048040000482040024036
:100F0000284002403040024010400240044002406D
:100F100000400240C150001183B00B46029001A86E
:100F2000017000920098029949680F3188421AD9DD
:100F3000FFE702984078029901221040087001A84A
:100F40000078029910404870029840781040029949
:100F500009781140401A411E884102998870009812
:100F600002994860FFE703B07047000082B001902B
:100F700007480068019940180090FFE7044800689E
:100F80000099884201D9FFE700E0F7E702B0704717
:100F9000F000002000000000000000000102030437
:100FA0000607080940000000800000000002000061
:100FB00000010000D40F000800000020080000001D
:100FC00004010008DC0F000808000020F8060000FB
:0C0FD0002001000800127A00010000005F
:040000050800016D81
:00000001FF
