:020000040800F2
:10000000200700206D010008750100087701000835
:1000100000000000000000000000000000000000E0
:10002000000000000000000000000000790100084E
:1000300000000000000000007B010008E507000848
:100040007F0100087F0100087F0100087F01000890
:100050007F0100087F0100087F0100087F01000880
:10006000150900087F0100087F0100087F010008D2
:100070007F0100087F0100087F0100087F01000860
:100080007F0100087F0100087F0100087F01000850
:100090007F0100087F010008F90800087F010008BF
:1000A0007F0100087F010008710700087F01000838
:1000B0007F0100087F0100087F0100087F01000820
:1000C00000F002F800F042F80CA030C808382418FC
:1000D0002D18671EA246AB4654465D46AC4201D180
:1000E00000F034F87E460F3EB6460FCC0126334270
:1000F00000D0FB1A3343A246AB4618474C11000010
:100100006C110000103A02D378C878C1FAD85207AF
:1001100001D330C830C101D504680C6070470000BD
:100120000023002400250026103A01D378C1FBD813
:10013000520700D330C100D50B6070471FB500983F
:10014000019900F038F91FBD10B510BD00F0B3F9EA
:100150001146FFF7F3FF00F0F7FE00F0CBF903B410
:10016000FFF7F2FF03BC00F0FBF9000007488047EF
:1001700007480047FEE7FEE7FEE7FEE7FEE7FEE78B
:1001800004480549054A064B70470000F508000879
:10019000C1000008200100202007002020030020CB
:1001A0002003002070B5064600F0E8F805683046E8
:1001B0000B30C408E400B44201D8002070BD686868
:1001C0002A46002818D00168A14211D30B462146C7
:1001D00008318B4208D3436801194B6003681B1B2D
:1001E0000B605160046001E041685160001D70BD0A
:1001F000024640680028E6D12146284600F0C6F8AD
:100200000028DCD170BD0000002203098B422CD3F2
:10021000030A8B4211D300239C464EE003460B4356
:100220003CD4002243088B4231D303098B421CD3B8
:10023000030A8B4201D394463FE0C3098B4201D3AA
:10024000CB01C01A524183098B4201D38B01C01AE2
:10025000524143098B4201D34B01C01A5241030959
:100260008B4201D30B01C01A5241C3088B4201D308
:10027000CB00C01A524183088B4201D38B00C01AB5
:10028000524143088B4201D34B00C01A5241411ADC
:1002900000D201465241104670475DE0CA0F00D0BF
:1002A0004942031000D3404253409C4600220309B8
:1002B0008B422DD3030A8B4212D38901FC2212BA3E
:1002C000030A8B420CD3890192118B4208D3890116
:1002D00092118B4204D389013AD0921100E089092E
:1002E000C3098B4201D3CB01C01A524183098B420F
:1002F00001D38B01C01A524143098B4201D34B01F8
:10030000C01A524103098B4201D30B01C01A52415A
:10031000C3088B4201D3CB00C01A524183088B42E1
:1003200001D38B00C01A5241D9D243088B4201D36A
:100330004B00C01A5241411A00D2014652411046A8
:1003400063465B1001D34042002B00D54942704701
:1003500063465B1000D3404201B50549002802DC2A
:10036000491C084000E00846C046C04602BD00BF28
:10037000FFFFFF7F704770477047000000487047DD
:1003800010000020704770477047704738B504462A
:100390000A4600206946C046C046002805D00246ED
:1003A0002046009900F066F8012038BD10B5012004
:1003B00000F07AF810BDF8B5C046C04605460020EA
:1003C0000C461020C0460646A819A0420DD9324658
:1003D00069460020C046C046070001D100F064F81D
:1003E0000098A04200D00546C419FFF7C7FFF61DCC
:1003F00007460560F008C0004619284600F008F8D6
:10040000B44204D031463868A21B00F033F8F8BD7E
:10041000002101604160806070471020704770B516
:100420000446051FFFF7AAFF0068002C1AD0446895
:1004300001E020466468002C01D0AC42F9D3016889
:100440000A18AA4204D12A6805468918016000E00A
:10045000456028684119A14205D161686960216839
:100460004018286070BD6C6070BD00000048704787
:100470000800002010B50346406801E003464068CC
:10048000002801D08842F9D31868C3188B4206D0DF
:10049000CB1CD808C000001D411A521A0146081D85
:1004A0000A60FFF7BCFF10BD10B500F031F800F096
:1004B00029F810BD70477546FFF7D8FFAE46050016
:1004C00069465346C008C000854618B020B5FFF7FE
:1004D00057FE60BCB64600260027C0C5C0C5C0C5D3
:1004E000C0C5C0C5C0C5C0C5C0C5403D490849005C
:1004F0008D46704710B50446C046C0462046FFF7FB
:100500002EFE10BD10B5002801D000F029F810BD56
:1005100010B5012805D0002103A000F027F8012024
:1005200010BD09A1F8E7000053494752544D454D0D
:100530003A204F7574206F662068656170206D6584
:100540006D6F7279000000003A2048656170206D7F
:10055000656D6F727920636F727275707465640077
:1005600001491820ABBEFEE72600020070B5054623
:100570000C460A2000E06D1C00F012F8002D06D099
:1005800028780028F7D102E0641C00F009F8002C5C
:1005900002D020780028F7D10A2000F001F870BDC1
:1005A00008B5694608700320ABBE08BD70B582B0BF
:1005B000014601AA1070234803680124A5042B43B7
:1005C0000360214803680325ED042B4303601F48A3
:1005D000036805256D052B4303601D48036820262D
:1005E000334303601B4803682B4303601A480368C6
:1005F0003343036019480368A5032B43036018487D
:10060000036825022B43036003682603334303601A
:10061000144803682B4303601348002303701378C6
:10062000234043701078C007002806D0FFE700F091
:1006300027FC0E480021018002E000F019FCFFE7D2
:1006400002B070BD1C1002401410024000080048A7
:10065000000C00480C0800480C0C004808480040FA
:1006600024080048200C00481801002028480040B9
:1006700080B586B00590DD480168426889188068B9
:1006800008180321FFF7C0FD264908600868049098
:1006900025480078C007002823D0FFE7D348016829
:1006A00007221140002303901846029200F04CFAF2
:1006B00003984168029A1140012000F045FA03981E
:1006C0008168029A1140022000F03EFA1548006845
:1006D00002990840042201901046019900F034FA72
:1006E000FFE7059800F024F810480168FF229143C5
:1006F00001600168042211430160BE4801680F22B5
:10070000914301600168012212021143016062B647
:10071000082000F073F9B848016802221143016013
:1007200006B080BDE80000200400002030400240F8
:1007300082B00190684600210170FFE768460078AA
:1007400002280CDCFFE70198694609788900074A0E
:100750004250FFE70098401C69460870EEE7019898
:10076000002101730198417302B07047FFFF000040
:1007700080B582B0F348006801A9088000F010FC41
:100780000248402100F05EFC02B080BD1408004821
:1007900080B584B002900298401E000E002803D05D
:1007A000FFE70120039013E00298401E0A49086009
:1007B0000020C143032201900846114600F034F99D
:1007C0000648019901600648072202600391FFE78D
:1007D000039804B080BDC04614E000E018E000E0DB
:1007E00010E000E080B504480168491C0160006821
:1007F00000F0D0F980BDC0461401002080B586B05D
:1008000000200590049003900290344800680C2169
:100810000840059005980028019008D0FFE701984E
:10082000042808D0FFE70198082808D044E02E48A3
:100830002C49016044E02C482A49016040E02748E7
:1008400001680F2293041940049100680321C90331
:10085000084003900498800C801C04902048006895
:100860001040401C0290039801210904884209D1DC
:10087000FFE702991B48FFF7C7FC049941431A4858
:10088000016018E003980321C903884209D1FFE7FA
:1008900002991648FFF7B8FC0499414312480160D9
:1008A00008E002990F48FFF7AFFC049941430E4856
:1008B0000160FFE7FFE703E00B480A490160FFE73B
:1008C00006480068C0B200090949085C059005980F
:1008D00005490A68C2400A6006B080BD04100240A3
:1008E0002C10024000127A0000000020006CDC0294
:1008F000381200087047000004480168491C016074
:1009000003480168012291430160704710010020F3
:100910001048014081B033480068800700280ED598
:10092000FFE7314801680322114301602F4800218D
:100930008160416001600173012141734FE02A48E9
:1009400001680122114301602848007B00280090C3
:1009500008D0FFE70098012813D0FFE7009802288D
:100960001ED027E02248006820490860214801681D
:100970000F2291430160016801225202114301607C
:1009800018E01B480068194948601A4801680F229E
:100990009143016001680122D2021143016009E024
:1009A0001348006811498860124801680F2291437A
:1009B0000160FFE70D48017B491C0173007B0228A1
:1009C00009DCFFE70C480168012211430160074878
:1009D0000021417303E0054801214173FFE701B0A5
:1009E0007047C0460C4002400840024068000020AA
:1009F0003C400240284002400040024081B0014695
:100A00006A461070107840B2002809D4FFE76846A3
:100A100000781F2108400121814002480160FFE762
:100A200001B0704700E100E070B582B0024601AB52
:100A300018700091187840B2002817D4FFE701A879
:100A4000017849B20322D2431140184BC9580078AB
:100A500040B28407E40EFF25A540A943009DAD01E7
:100A6000EDB2A54029431040C1501AE001A8017819
:100A70000F22114008390323DB4319400A4C09595E
:100A8000007840B28507ED0EFF26AE40B143009ED0
:100A9000B601F6B2AE40314310400838184001515B
:100AA000FFE702B070BDC0461CED00E000E400E0CE
:100AB00080480068012108407047C04681B000208E
:100AC0000090FFE7009807280ADCFFE70098800005
:100AD0002F4900220A50FFE70098401C0090F1E7E0
:100AE00001B07047B0B50B4801210170284801687A
:100AF00042688368C468084DEC60AB606A60296036
:100B0000016942698369C069E861AB616A61296111
:100B1000B0BDC046AC0000208C00002083B0029025
:100B20000191002000900198029989004058009995
:100B3000014300910098CD490A6802430A6003B05E
:100B40007047C0460C38004082B001900091009878
:100B500007280CDCFFE70098002808D4FFE701987D
:100B6000002804D4FFE70198082801DBFFE70DE027
:100B7000009801210A4682401202019B99400A43D3
:100B8000800003490B5813430B50FFE702B0704736
:100B9000EC000020F0B58DB00C9042480168424A4C
:100BA0001140016041490B68414C23400B60414BAF
:100BB0001D681026F7433D401D601D680B902020E6
:100BC0000A90C04305401D600B9D2D6809900120CF
:100BD0000890C00305430B9805600D6825400D6023
:100BE0001D6835402D090C980790334806900591F3
:100BF0002946079D04922A46039402930196009782
:100C000000F0DCFA029801680A9A114049090C9A2E
:100C1000069B0833184600F0D1FA0B980168049A35
:100C20001140016005990B68039C23400B60029BF7
:100C30001D68009E35401D601D68099F3D401D6078
:100C40000568154005600D680898000305430D60B0
:100C50001868019D284001090C9A0698103000F090
:100C6000ADFA029801680A9A114049090C9A069B4C
:100C70001833184600F0A2FA0B980168049A114044
:100C8000016005990B68039C23400B60029B1D6863
:100C9000009E35401D601D68099F3D401D600DB0E0
:100CA000F0BDC04614000048FF7FFFFF1408004855
:100CB000FFEFFFFF10000048BC00002080B582B0AD
:100CC00000F0A8F9FFF716FEFFF798FD0E48006840
:100CD0007D21C900FFF798FAFFF75AFD0B4907225B
:100CE0000A60019000F0DAF900F012F800F0B4F9AF
:100CF00000F072F800F046F800F0D0F80020FFF79E
:100D000055FC02B080BDC0460000002010E000E0AD
:100D100070B54F4801680522530419430160C84863
:100D2000016803239943016001685524240321438A
:100D3000016012490C6801256E0234400C601049B4
:100D40000C680F263604B4430C600921C9060C68F0
:100D5000AE0734430C600C681E02B4430C600C6890
:100D60009B029C430C6040490B68520213430B608A
:100D700001682A061143016070BDC046040800489E
:100D80000C0800480C48002101800C4A07231380FE
:100D900001235380438093808380094A106009486F
:100DA000094A02604260094A8260094AC2600948F1
:100DB0000160818083717047DC000020E200002028
:100DC000880000207800002000004040CDCC4C3E40
:100DD000CDCCCC3DB000002070B5E74801680322BF
:100DE0005204114301601B48016801229303194317
:100DF00001601948016801600168016017481849DD
:100E000001600F210902174B1960DC490C6811259C
:100E1000ED062C430C600921C9060C681604344306
:100E20000C60E1490C682C430C600F490C685204BB
:100E300014430C600168402211430160186810439C
:100E400018601A20FFF7DAFD08480021016070BD24
:100E5000141002401C1002402404004800380040D6
:100E60003F030000043800400C0000480C380040EC
:100E700007480849016008480D2101607047C046D5
:100E800003480449016004480D2101607047C046D1
:100E90000C480040881300000048004080B50D4811
:100EA000016801229304194301600B480B4901605A
:100EB0000B4802600B4801689123194301600A48FE
:100EC0000168114301601620FFF798FD07480021D3
:100ED000016080BD1810024028480140B70B000097
:100EE0002C480140004801400C48014010010020FE
:100EF00080B5064801680322114301600820FFF70E
:100F00007DFD03480349016080BDC04604400240A6
:100F100000400240C1D0001180B582B00190FFF7BF
:100F2000C7FD002801D0FFE7FFE706480121017057
:100F3000FFF7D8FDFFF7C2FD142000F069F902B0F9
:100F400080BDC0460400002080B584B0002003901E
:100F5000042101900846FFF725F9029002980199B3
:100F60000160FFF7ABFEFFE70348FFF781FB029844
:100F7000FFF7D2FFF8E7C046680000200748016885
:100F800001221202914301607047C0460348016884
:100F900001221202114301607047C046140000484C
:100FA00080B582B017480068082804DBFFE71648C0
:100FB00001210170FFE714480078C00700280DD018
:100FC000FFE712480078C007002801D1FFE716E0CC
:100FD0000C48002101600C480170FFE7FFF7D6FFC5
:100FE000FFF7CCFF07480168094A019008461146FF
:100FF000FFF794FD01980168491C0160FFE702B00A
:1010000080BDC0460C01002005000020AC0000207F
:101010008C00002081B000200090FFE700980E288F
:101020000BD8FFE70098C01C55490A6802430A60C4
:10103000FFE70098401C0090F0E701B07047C04601
:101040000008004882B001900091009801990A6858
:1010500082430A6002B0704781B000200090FFE731
:101060000098032816DCFFE70098C0000A4908181A
:10107000002242600098C000081842700098C0002A
:101080000A540098C00008188270FFE70098401CBE
:101090000090E5E701B07047BC000020F0B583B0D8
:1010A0003548016801225304194301600168032394
:1010B0009C042143016031490C683F25EE433440D4
:1010C0000C602F4C276802902E48074027600F685D
:1010D00001902A2007430F602068D1020843206056
:1010E00029480168294C214001600168284C2143AE
:1010F0000160284801680F242705B9430160016891
:1011000001600298016817063943016022490F689F
:10111000042007430F60214801682402A1430160B5
:101120001F48016802242143016001680524A1438E
:1011300001601C4801682024A14301601A4801682D
:101140003140016019480168019C21400160184844
:10115000016829430160174801689B021943016037
:101160000092FFF7C5FE14480168009A93021943E4
:10117000016003B0F0BDC0461410024000040048F6
:1011800000080048FFF3FFFF2004004800F0FFFFC5
:101190003303000020080048304002401040024065
:1011A00004040048040800480C0400480C080048E7
:1011B00008040048080800482040024083B00B465D
:1011C000029001A8017000920098029949680F31BD
:1011D00088421AD9FFE7029840780299012210400C
:1011E000087001A800780299104048700298407871
:1011F0001040029909781140401A411E8841029915
:101200008870009802994860FFE703B070470000BB
:1012100082B0019007480068019940180090FFE7EC
:10122000044800680099884201D9FFE700E0F7E729
:1012300002B0704714010020000000000000000010
:1012400001020304060708096812000800000020D4
:1012500008000000040100087012000808000020C7
:10126000180700002001000800127A0001010000A8
:040000050800016D81
:00000001FF
