:020000040800F2
:10000000380700206D01000875010008770100081D
:1000100000000000000000000000000000000000E0
:10002000000000000000000000000000790100084E
:1000300000000000000000007B0100084D0E0008D9
:100040007F0100087F0100087F0100087F01000890
:100050007F0100087F0100087F0100087F01000880
:100060007D0F00087F0100087F0100087F01000864
:100070007F0100087F0100087F0100087F01000860
:100080007F0100087F0100087F0100087F01000850
:100090007F0100087F010008610F00087F01000850
:1000A0007F0100087F010008D50D00087F010008CE
:1000B0007F0100087F0100087F0100087F01000820
:1000C00000F002F800F042F80CA030C808382418FC
:1000D0002D18671EA246AB4654465D46AC4201D180
:1000E00000F034F87E460F3EB6460FCC0126334270
:1000F00000D0FB1A3343A246AB46184750260000F7
:1001000070260000103A02D378C878C1FAD8520796
:1001100001D330C830C101D504680C6070470000BD
:100120000023002400250026103A01D378C1FBD813
:10013000520700D330C100D50B6070471FB500983F
:10014000019900F0F4F91FBD10B510BD00F015FDC8
:100150001146FFF7F3FF01F095FB00F02DFD03B40E
:10016000FFF7F2FF03BC00F087FD0000074880475F
:1001700007480047FEE7FEE7FEE7FEE7FEE7FEE78B
:1001800004480549054A064B704700005D0F00080A
:10019000C100000838010020380700203803002083
:1001A0003803002070B5064600F0A4F90568304613
:1001B0000B30C408E400B44201D8002070BD686868
:1001C0002A46002818D00168A14211D30B462146C7
:1001D00008318B4208D3436801194B6003681B1B2D
:1001E0000B605160046001E041685160001D70BD0A
:1001F000024640680028E6D12146284600F082F9F0
:100200000028DCD170BD0000002203098B422CD3F2
:10021000030A8B4211D300239C464EE003460B4356
:100220003CD4002243088B4231D303098B421CD3B8
:10023000030A8B4201D394463FE0C3098B4201D3AA
:10024000CB01C01A524183098B4201D38B01C01AE2
:10025000524143098B4201D34B01C01A5241030959
:100260008B4201D30B01C01A5241C3088B4201D308
:10027000CB00C01A524183088B4201D38B00C01AB5
:10028000524143088B4201D34B00C01A5241411ADC
:1002900000D201465241104670475DE0CA0F00D0BF
:1002A0004942031000D3404253409C4600220309B8
:1002B0008B422DD3030A8B4212D38901FC2212BA3E
:1002C000030A8B420CD3890192118B4208D3890116
:1002D00092118B4204D389013AD0921100E089092E
:1002E000C3098B4201D3CB01C01A524183098B420F
:1002F00001D38B01C01A524143098B4201D34B01F8
:10030000C01A524103098B4201D30B01C01A52415A
:10031000C3088B4201D3CB00C01A524183088B42E1
:1003200001D38B00C01A5241D9D243088B4201D36A
:100330004B00C01A5241411A00D2014652411046A8
:1003400063465B1001D34042002B00D54942704701
:1003500063465B1000D3404201B50549002802DC2A
:10036000491C084000E00846C046C04602BD00BF28
:10037000FFFFFF7F704770477047000030B50346AE
:10038000CA02400D1043164D164C0A1502D02043E8
:10039000002A06DBAA1A002A12DDD040FF2A0BDC55
:1003A00030BD5205520D01D140004008AA1A07D4B1
:1003B000D0404042FF2A01DD002030BD0028FCDD96
:1003C0004A00002B01D0012000E00020101801227B
:1003D0005205D042F0D8C817C043604030BD00007D
:1003E0001E040000000000801F22030C02D10F2217
:1003F000000402D0030E03D004E000200146704741
:100400000002083A030F01D10001121F830F01D12E
:100410008000921E002801DB4000521E1205511878
:100420004205C012411810467047C10FC90700D0DD
:100430004042012292071143D6E701218907D3E701
:100440000121C9050123411842001B06D3185B0E88
:100450000AD0C1100722D206891840075242D14261
:1004600001D5520089187047090208D50146002AB3
:1004700003D0C10FC90700207047104670474202E1
:1004800002D0002002497047072109050143F4E723
:100490000000F87F1F22030C02D10F2200041CD0A1
:1004A000030E01D10002083A030F01D10001121F0F
:1004B000830F01D18000921E002801DB4000521EF4
:1004C000D2055118021251181922904004D3491C28
:1004D000002801D14908490008467047C10FC907E3
:1004E00000D04042012292071143D3E7012189073E
:1004F000D0E70000004870471800002070477047A0
:100500007047704738B504460A4600206946C04621
:10051000C046002805D002462046009900F08AFA1D
:10052000012038BD10B5012000F09EFA10BDF8B5CD
:10053000C046C046054600200C461020C046064670
:10054000A819A0420DD9324669460020C046C046CF
:10055000070001D100F088FA0098A04200D00546BB
:10056000C419FFF7C7FFF61D07460560F008C00075
:100570004619284600F008F8B44204D031463868DD
:10058000A21B00F057FAF8BD0021016041608060B5
:1005900070471020704770B50446051FFFF7AAFF8B
:1005A0000068002C1AD0446801E020466468002CE2
:1005B00001D0AC42F9D301680A18AA4204D12A68D2
:1005C00005468918016000E0456028684119A1428C
:1005D00005D16168696021684018286070BD6C6051
:1005E00070BD0000F0B50C46871A9C410D46861A76
:1005F0009D4103D2C01BA141D21963410D0D1F0DB6
:10060000C94EEC1BAE435CD07F057F0D0026002F4A
:1006100051D02D05AC46A943DD020123ED0A1B058F
:100620001D4320231B1B24D41746E7403818714173
:100630002F46E740CC199D402818314661410C0DEA
:1006400027D161449A4013D50023401C59415200E0
:100650000ED14008400001224B005205D34207D37F
:1006600005204007C14201D5B04900E0B0493046FD
:10067000F0BD6B00002A00D001229A181F23203CF5
:100680001B1B01D5002302E0E540281871410C0D29
:10069000D7D0012424050919C407CD07400849080B
:1006A000E40F28436144002CD5D00024401C614154
:1006B0009A40D0D1CDE76A05520DD9D1C90FC907EB
:1006C000D5E79C4D4E00002801D0012400E0002415
:1006D00034195F00002A01D0012600E00026BE196F
:1006E000954FAC420CD8AE420AD8B44206D0012590
:1006F0006D05EC42BCD010461946F0BD9942FCD0C5
:1007000000203946F0BDF0B51FB40C460F46811AE3
:100710009F412546861A9D4106D20125ED076F406F
:10072000401ABC4152187B41210D1E0D8D1BAC4659
:100730007D4D8D437ED075056D0D7CD00D05AE468B
:10074000AC431B031B0B794D52429D41202366464F
:100750009B1B14D31746F7403818002600907441AD
:1007600060462F460741E41900989D4028186641CD
:1007700016D4714671189A4025D5012320E09318AC
:100780002A466A415200002B00D0521C1E23203EF4
:100790009B1B002B61DD3541EE1728186641E8D51B
:1007A000001876415B1C9A4000D3401C4B05F3189F
:1007B0001524E34010D3002B52D071467118D30F8B
:1007C000C01802D3491C05B0F0BD0123DB079A42D3
:1007D000F9D140084000F6E701225205B21801D1D4
:1007E000002853D00123CC0ADB029943891E002A3A
:1007F00008D1020C03D0020C0004103902E00246BA
:10080000002020390023550B05D112020823550B77
:1008100001D152010D23550C01D112011B1DD50C24
:1008200001D192009B1C150D01D152005B1C2025AB
:10083000EE1A01E02CE022E00546F5401543984011
:10084000CA1AE10769181305C918002ABBDA032080
:1008500040070818C10FC9070FE071466118B2E7D9
:10086000F10740080843711071444A000CD001237D
:100870005B059A42A7D2C90FC9070020A3E7490523
:10088000490D26D1002001E00028F4D100219AE78B
:10089000284D6600002801D0012100E000217118D8
:1008A0005F00002A01D0012600E00026BE19224F79
:1008B000A94210D8AE420ED8B14208D001256D052C
:1008C000E94206D01946A802414010467BE79C4207
:1008D00001D0214677E70020394674E710B50C4671
:1008E0005C4005D50124E4076340FFF70CFF10BD11
:1008F000FFF778FE10BD30B40C465C4004D50124EF
:10090000E407634030BC6DE630BCFCE670B5012402
:10091000E40761400D465D4002D4FFF763FE70BD01
:100920006340FFF7F0FE70BDFF0700000000F0FF1E
:100930000000F07F0000E0FF0000F87FF0B5012329
:100940000A0DDB0200249A43E4430025002A28D044
:100950005B1E9A4223D05B10D61AA64228DB721C7B
:1009600048D0342E18D20222142E2BD822D00B4677
:100970000D36B34001D100280FD00024701E0B4665
:100980008340DB0FF2412846551EA943002B03D0BC
:100990008918002C00D09143F0BD0124EEE79A4263
:1009A00039D04A000243F7D0C90FC9072846F0BD25
:1009B000002223E00122C30F400001D00024E2E71F
:1009C0000124E0E70346133EB34011D00023741E18
:1009D0000746A740FC0FF2411746521E9043002CD9
:1009E000E5D0002B00D0521CC01969419043F0BDE6
:1009F0000123ECE701220B0318430AD00023C90F9F
:100A0000C9072846002AF2D0002BF0D1054A11432D
:100A1000F0BD0123F3E70A0301D10028F8D000203C
:100A20000149F0BD0000F03F0000F87F004870472A
:100A30001000002010B50346406801E003464068FE
:100A4000002801D08842F9D31868C3188B4206D019
:100A5000CB1CD808C000001D411A521A0146081DBF
:100A60000A60FFF798FD10BD10B500F0B3F800F074
:100A7000ABF810BDF8B5264C4E00069DA6420AD82C
:100A8000A64201D1002806D15E00A64203D8A642A4
:100A90000AD1002A08D00D242404254233D0294647
:100AA000002000F0BFF8F8BD0C461C4311D4994259
:100AB00007D0C81A02D3EFF30080F8BDEFF300802F
:100AC000F8BD801A02D3EFF30080F8BDEFF3008089
:100AD000F8BD09242407E5008B4207D0581A02D339
:100AE000EFF3008006E0EFF3008007E0101A03D375
:100AF000EFF30080A04303E0EFF30080A04328431E
:100B000080F30088F8BD009500F0A4F8F8BD00005F
:100B10000000E0FF10B5FF231B0644009C421DD8D7
:100B20004C009C421AD80346124A0B4307D4401A81
:100B300002D3EFF3008010BDEFF3008010BD081A60
:100B400003D3EFF30080904305E0EFF30080012131
:100B50009043C907084380F3008810BD0D231B0490
:100B60001A4204D01146002000F05CF810BD00F0DD
:100B70007BF810BD0000009070477546FFF756FFE8
:100B8000AE46050069465346C008C000854618B009
:100B900020B5FFF7F5FA60BCB64600260027C0C5B1
:100BA000C0C5C0C5C0C5C0C5C0C5C0C5C0C5403D25
:100BB000490849008D46704710B50446C046C046F6
:100BC0002046FFF7CCFA10BD10B5002801D000F088
:100BD00053F810BD10B5012805D0002103A000F086
:100BE00051F8012010BD09A1F8E700005349475210
:100BF000544D454D3A204F7574206F6620686561ED
:100C000070206D656D6F7279000000003A204865B4
:100C10006170206D656D6F727920636F727275708F
:100C200074656400C80212D54803400F002804D040
:100C3000C803C043012188407047EFF300800001E2
:100C4000000903210907084380F30088704700204A
:100C50007047000010B500200249029A00F02CF8FD
:100C600010BD00000000F87F10B5024800F024F825
:100C700010BD00000000C07F01491820ABBEFEE798
:100C80002600020070B505460C460A2000E06D1CE7
:100C900000F041F8002D06D028780028F7D102E0B6
:100CA000641C00F038F8002C02D020780028F7D11E
:100CB0000A2000F030F870BD10B50C461107090F7E
:100CC000092904D00A290AD008290CD104E01146C8
:100CD0000820FFF7A7FF06E0510606D501E0510600
:100CE00001D50120C007214610BDD10607D501015D
:100CF0000909CC084907000E0006044309E0410F2A
:100D000020024907000A0143200E00061D22D1419E
:100D100001430846E7E708B5694608700320ABBE03
:100D200008BD000070B584B00A46039002A80170A7
:100D30001F490B680124A5042B430B601D490B6858
:100D40000325ED042B430B601B490B6805256D053E
:100D50002B430B6019490B68202633430B6018495D
:100D60000B682B430B6017490B6833430B60164924
:100D70000B68A5032B430B6014490B6825022B431A
:100D80000B600B68260333430B6011490B682B4340
:100D90000B60039900234B7003990B700078039943
:100DA000204088700398019200F046FC04B070BDAA
:100DB0001C1002401410024000080048000C0048BB
:100DC0000C0800480C0C0048084800402408004863
:100DD000200C004880B582B00548006801A9088051
:100DE00000F080FF0348402100F0CCFF02B080BD3E
:100DF0000C3800401408004880B584B00290029876
:100E0000401E000E002803D0FFE70120039013E0EE
:100E10000298401E0A4908600020C1430322019045
:100E20000846114600F040F906480199016006485D
:100E3000072202600391FFE7039804B080BDC0461B
:100E400014E000E018E000E010E000E080B50448A5
:100E50000168491C0160006800F060FA80BDC0466E
:100E60003001002080B586B00020059004900390EA
:100E70000290344800680C2108400590059800282D
:100E8000019008D0FFE70198042808D0FFE70198F7
:100E9000082808D044E02E482C49016044E02C4842
:100EA0002A49016040E0274801680F229304194055
:100EB000049100680321C903084003900498800C42
:100EC000801C0490204800681040401C0290039849
:100ED00001210904884209D1FFE702991B48FFF765
:100EE00093F9049941431A48016018E003980321DB
:100EF000C903884209D1FFE702991648FFF784F930
:100F0000049941431248016008E002990F48FFF735
:100F10007BF9049941430E480160FFE7FFE703E0D6
:100F20000B480A490160FFE706480068C0B20009A3
:100F30000949085C0590059805490A68C2400A609D
:100F400006B080BD041002402C10024000127A004E
:100F500000000020006CDC023C2700087047000005
:100F600004480168491C016003480168012291435B
:100F7000016070472C0100201048014080B582B00C
:100F800037480068800700280ED5FFE7354801681C
:100F900003221143016034480021816041600160F7
:100FA00001730121417359E02E4801680122114368
:100FB00001602D48007B0028019008D0FFE70198D0
:100FC000012813D0FFE7019802281ED027E0274808
:100FD000006825490860264801680F229143016096
:100FE0000168012252021143016018E01F480068A5
:100FF0001D4948601E4801680F2291430160016845
:101000000122D2021143016009E018480068164924
:101010008860174801680F2291430160FFE712487A
:10102000017B491C0173007B022809DCFFE71248A1
:1010300001680222114301600B48002141730DE059
:1010400009480121417301684268891880680818BD
:101050000321FFF7D9F807490860FFE702B080BD18
:101060000C40024008400240700000203C4002401A
:1010700028400240000100200040024081B00146AB
:101080006A461070107840B2002809D4FFE768461D
:1010900000781F2108400121814002480160FFE7DC
:1010A00001B0704700E100E070B582B0024601ABCC
:1010B00018700091187840B2002817D4FFE701A8F3
:1010C000017849B20322D2431140184BC958007825
:1010D00040B28407E40EFF25A540A943009DAD0161
:1010E000EDB2A54029431040C1501AE001A8017893
:1010F0000F22114008390323DB4319400A4C0959D8
:10110000007840B28507ED0EFF26AE40B143009E49
:10111000B601F6B2AE4031431040083818400151D4
:10112000FFE702B070BDC0461CED00E000E400E047
:10113000C7480068012108407047C04681B00020C0
:101140000090FFE7009807280ADCFFE7009880007E
:10115000714900220A50FFE70098401C0090F1E717
:1011600001B07047B0B50B48012101706A480168B1
:1011700042688368C468084DEC60AB606A602960AF
:10118000016942698369C069E861AB616A6129618B
:10119000B0BDC046B40000209400002080B584B0EB
:1011A00000200390FFE7039803280ADCFFE7039879
:1011B0002B49096800F08CF8FFE70398401C039066
:1011C000F1E727480168491E01220290104601926A
:1011D00000F07EF802980168491C019800F078F848
:1011E00004B080BD80B584B0052001210390029138
:1011F00000F06EF806200190029900F069F803985B
:10120000019900F065F80198019900F061F80398E0
:10121000039900F05DF80198039900F059F810481F
:101220000068052805D0FFE70D48006806280AD1A8
:10123000FFE707200621009000F04AF805210098FA
:1012400000F046F8FFE706480068012805D1FFE7EF
:101250000720012100F03CF8FFE704B080BDC04644
:101260000800002080B582B0019001980421405E02
:1012700040420090FFE7009801990422895E88426D
:101280000FDCFFE70198008800B201990222895E15
:10129000009A891800F01CF8FFE70098401C0090A5
:1012A000E9E702B080BD000083B002900191002008
:1012B00000900198029989004058009901430091DB
:1012C0000098DC490A6802430A6003B07047C046D0
:1012D00082B001900091009807280CDCFFE700988D
:1012E000002808D4FFE70198002804D4FFE70198FC
:1012F000082801DBFFE70DE0009801210A46824043
:101300001202019B99400A43800003490B58134382
:101310000B50FFE702B0704704010020F0B58FB01A
:101320000E9047480168474A1140016046490B68E2
:10133000464C23400B60464B1D681026F7433D404A
:101340001D601D680D9020200C90C04305401D605D
:101350000D9D2D680B9001200A90C00305430D9848
:1013600005600D6825400D601D6835402D090E98FB
:1013700009903848089007912946099D06922A4607
:10138000059404930396029700F06CFE049801689C
:101390000C9A114049090E9A089B0833184600F030
:1013A00061FE0D980168069A1140016007990B686B
:1013B000059C23400B60049B1D68029E35401D6008
:1013C0001D680B9F3D401D600568154005600D6858
:1013D0000A98000305430D601868039D2840010921
:1013E0000E9A0898103000F03DFE049801680C9A9F
:1013F000114049090E9A089B1833184600F032FE36
:101400000D980168069A1140016007990B68059CC8
:1014100023400B60049B1D68029E35401D601D68C3
:101420000B9F3D401D60FFF783FE0E9A0899203107
:1014300001900846019900F015FE0FB0F0BDC046BE
:1014400014000048FF7FFFFF14080048FFEFFFFF74
:1014500010000048C400002010B582B00A460346C0
:1014600001AC2070684601700078217801248C401E
:101470002040C84002B010BD80B582B000F06CFCC6
:10148000FFF76CFDFFF7EEFC0E4800687D21890038
:10149000FEF7BAFEFFF7B0FC0B4907220A60019085
:1014A00000F02CFD00F012F800F076FC00F074F86B
:1014B00000F048F800F0FEF8EF480021FFF732FC9A
:1014C00002B080BD0000002010E000E070B5504880
:1014D000016805225304194301601748016803237A
:1014E0009943016001685524240321430160134995
:1014F0000C6801256E0234400C6011490C680F26FF
:101500003604B4430C600921C9060C68AE073443A5
:101510000C600C681E02B4430C600C689B029C4378
:101520000C6043490B68520213430B6001682A06A2
:101530001143016070BDC04600080048040800481F
:101540000C0800480C48002101800C4A0723138036
:1015500001235380438093808380094A10600948A7
:10156000094A02604260094A8260094AC260094829
:101570000160818083717047F4000020FA00002030
:10158000900000208000002000004040CDCC4C3E68
:10159000CDCCCC3DB800002070B51D4801680322B9
:1015A0005204114301601B4801680122930319434F
:1015B0000160194801680160016801601748184915
:1015C00001600F210902174B196017490C6811259A
:1015D000ED062C430C600921C9060C68160434433F
:1015E0000C6012490C682C430C6011490C685204C1
:1015F00014430C60016840221143016018681043D5
:1016000018601A20FFF73AFD0A480021016070BDFA
:10161000141002401C10024024040048003800400E
:101620003F03000004380040000400480C04004858
:101630000C0000480C38004080B582B00190019841
:101640008078C007002803D0FFE700F019F802E017
:1016500000F004F8FFE702B080BD00001148016807
:10166000012291430160104900220A6001680822AA
:10167000914301600D490E4A0A60052101607047DF
:1016800008480168012291430160074900220A606D
:1016900001680422914301600449054A0A60092156
:1016A0000160704700480040204800400C4800405E
:1016B0008813000080B50D48016801229304194386
:1016C00001600B480B4901600B4802600B48016840
:1016D0009123194301600A480168114301601620F3
:1016E000FFF7CCFC65480021016080BD1810024066
:1016F000284801403F1F00002C480140004801409D
:101700000C48014080B5064801680322114301607E
:101710000820FFF7B3FC03480349016080BDC046C1
:101720000440024000400240C1D0001180B584B0A6
:10173000014603AA107002A8002303701078022249
:1017400001901046019A00911146FFF785FE00288E
:1017500005D0FFE7002002A900F040FBFFE703A847
:1017600001780320FFF778FE002805D0FFE701206D
:1017700002A900F033FBFFE703A801780420FFF77C
:101780006BFE002805D0FFE7022002A900F026FB2F
:10179000FFE702A8007804B080BD000080B582B0E9
:1017A0000190FFF7C5FC002801D0FFE7FFE73048B4
:1017B000002101702F48006800F078F8A748807871
:1017C000C007002821D0FFE72C480021016000F06D
:1017D0001DFBA24800F022FC002815D0FFE7284896
:1017E0000168491C0160006805280CDBFFE79B4885
:1017F000002181700091FFF71FFF204800990160D0
:101800001F480160FFE7FFE717E0944800F03EFA49
:10181000002804D0FFE719481E210160FFE71748A0
:101820000068332806DBFFE78C4801218170FFF751
:1018300003FFFFE700F0A6F9FFE788488078C007BC
:10184000002807D0FFE786480168012212021143F1
:10185000016006E0824801680122120291430160A2
:10186000FFE7FFF77FFCFFF769FC02B080BDC046D1
:101870000400002030010020340100202C01002051
:10188000F000002080B584B0002003900421019076
:101890000846FEF787FC0290029801990160FFF765
:1018A000EBFDFFE70298FFF779FFFBE710B586B085
:1018B0000590F1480068012851D1FFE7AE48212189
:1018C000405CC007002813D0FFE7AB482221405CF2
:1018D000C00700280CD0FFE7A7482221425C012363
:1018E0001C4694434454A34801788B430370FFE79C
:1018F000059858490968401A29280FD3FFE7DE48A0
:10190000C079C007002803D0FFE700F0D5FBFFE750
:1019100000F0A8F805984F490860FFE7D848FFF79E
:10192000A1FCD948FFF79EFCD64801680490084600
:10193000FEF786FD00F01AFDFEF720FD04994A68C7
:1019400003901046FEF77CFD00F010FDFEF716FD3B
:101950000399029008460299FFF7BAFC78E0C6485E
:101960000068002873D1FFE705983A490968401AD2
:101970001F2826D3FFE78048407CC00700280BD0F3
:10198000FFE735480068401C062805DCFFE73248C1
:101990000168491C0160FFE77748407EC0070028C6
:1019A0000BD0FFE72C480068401E012805DBFFE74D
:1019B00029480168491E0160FFE70598254908602C
:1019C000FFE7FFF7EBFBFFF70DFC6B48407AC00722
:1019D000002813D0FFE72048006801280ED1FFE758
:1019E000A548012101600021C17181606348A64AB8
:1019F0000260A2488170FFF71FFEFFE75E48407A51
:101A0000C007002822D0FFE713480068052805D04A
:101A1000FFE711480068062818D1FFE79648012122
:101A20000160C1710022826048020D4A0190104697
:101A3000019A0091114600F0DFF950489049016089
:101A40008E4800998170FFF7F7FDFFE7FFE7FFE79A
:101A500006B010BDEC00002008000020340100207A
:101A60001408004881B043480078C007002831D1ED
:101A7000FFE7D948407CC007002812D0FFE73F4865
:101A800001680222895E00680422805E0818401CFA
:101A9000072806DCFFE7394800684188491C418077
:101AA000FFE7CD48407EC007002812D0FFE733484B
:101AB00001680222895E00680422805EC0434018EB
:101AC000002806D4FFE72D4800684188491E418060
:101AD000FFE71CE02A4800680721084000900098B2
:101AE000264909680422895E401A00280ED4FFE7BF
:101AF0000098224909680422895E4018072805DCFD
:101B0000FFE700981D4909684880FFE7FFE7F548AF
:101B10008079C00700282BD0FFE7AF48407AC00784
:101B200000280FD0FFE7F0480221415E0422805ECA
:101B30000818401C072805DCFFE7EB484188491CD2
:101B40004180FFE7A4484078C00700280FD0FFE796
:101B5000E5480221415E0422805EC043401800280F
:101B600005D4FFE7E0484188491E4180FFE7FFE7D1
:101B700001B0704737010020C40000209000002011
:101B80000001002080B582B0D6480068012870D1DD
:101B9000FFE7D448C079C007002859D1FFE7D448EF
:101BA0000068002817D1FFE7D04841780020FFF7F0
:101BB00053FC00280FD1FFE7CC4841780120FFF704
:101BC0004BFC012807D1FFE7C8484078FFF7AEFD7E
:101BD000C8494880FFE7C6480068012819D1FFE7D7
:101BE000C24841780020FFF737FC012811D1FFE7F8
:101BF000BE4841780120FFF72FFC002809D1FFE7FC
:101C0000BA484078FFF792FDFEF770FCBA490860C9
:101C1000FFE7B7480068022819D1FFE7B3484178C9
:101C20000020FFF719FC012811D1FFE7AF484178E8
:101C30000120FFF711FC012809D1FFE7AB484078EC
:101C4000FFF774FDFEF752FCAB494860FFE704E084
:101C5000A6484078A4494880FFE7A5480168491C88
:101C60000322019008461146FEF7D8FA019A116046
:101C7000FFE702B080BDC046B8000020340100205C
:101C8000F400002080000020FA00002082B00090C4
:101C9000F14800688006002808D5FFE7074800885B
:101CA0000099487001A80121017003E001A80021FA
:101CB0000170FFE701A8007802B070472448004097
:101CC0000748016801221202914301607047C04633
:101CD0000348016801221202114301607047C046A7
:101CE0001400004880B582B017480068082804DB5B
:101CF000FFE7164801210170FFE714480078C0078C
:101D000000280DD0FFE712480078C007002801D155
:101D1000FFE716E00C48002101600C480170FFE766
:101D2000FFF7D6FFFFF7CCFF07480168094A01908B
:101D300008461146FFF7B8FA01980168491C01608E
:101D4000FFE702B080BDC046240100200C00002047
:101D5000B40000209400002081B000200090FFE734
:101D600000980E280BD8FFE70098C01C9C490A6811
:101D700002430A60FFE70098401C0090F0E701B0C2
:101D80007047C04682B001900091009801990A689E
:101D900082430A6002B0704781B000200090FFE7E4
:101DA0000098042816DCFFE70098C0000A490818CC
:101DB000002242600098C000081842700098C000DD
:101DC0000A540098C00008188270FFE70098401C71
:101DD0000090E5E701B07047C400002082B00246E1
:101DE00001AB1870009118780121814000980378A8
:101DF0000B43037002B0704782B0019000910098CD
:101E000001990A6802430A6002B0704780B586B043
:101E100034480068012862D1FFE73248C079C00722
:101E200000284BD0FFE73248006800280ED1FFE7BA
:101E300030484088C0B200F01FFA05A908700120A0
:101E4000FFF7CCFF059829490870FFE7284800688C
:101E5000012814D1FFE728480068FEF7F1FA00F0E6
:101E600085FAFEF78BFAC0B200F006FA04A90870F2
:101E70000020FFF7B3FF04981C490870FFE71C48D7
:101E80000068022819D1FFE7F5484068FEF7D8FA44
:101E900000F06CFAFEF772FAC0B200F0EDF903A997
:101EA000087000200291FFF799FF01200299FFF7C7
:101EB00095FF03980D490870FFE704E0EC4840885F
:101EC0000A490870FFE70A480168491C032201908B
:101ED00008461146FEF7A2F9019A1160FFE706B025
:101EE00080BDC046B8000020FA0000203401002068
:101EF00028010020F400002080000020F0B583B00D
:101F00003548016801225304194301600168032325
:101F10009C042143016031490C683F25EE43344065
:101F20000C602F4C276802902E48074027600F68EE
:101F300001902A2007430F602068D10208432060E7
:101F400029480168294C214001600168284C21433F
:101F50000160284801680F242705B9430160016822
:101F600001600298016817063943016022490F6831
:101F7000042007430F60214801682402A143016047
:101F80001F48016802242143016001680524A14320
:101F900001601C4801682024A14301601A480168BF
:101FA0003140016019480168019C214001601848D6
:101FB000016829430160174801689B0219430160C9
:101FC0000092FFF79FFB14480168009A930219439F
:101FD000016003B0F0BDC046141002400004004888
:101FE00000080048FFF3FFFF2004004800F0FFFF57
:101FF00033030000200800483040024010400240F7
:1020000004040048040800480C0400480C08004878
:1020100008040048080800482040024082B00090B0
:102020000D480068400600280DD5FFE700980078AD
:102030000A4908800A48016840221143016001A84A
:102040000121017003E001A800210170FFE701A850
:10205000007802B07047C0461C4800402848004045
:102060002048004083B00B46029001A80170009206
:102070000098029949680F3188421AD9FFE70298FF
:102080004078029901221040087001A80078029956
:102090001040487002984078104002990978114029
:1020A000401A411E88410299887000980299486040
:1020B000FFE703B07047000010B592B06848816830
:1020C00002681190104600F037FA11990860C9684B
:1020D0001198406800F030FA1199486061488021F9
:1020E000FFF750FE119800685F4900F01CF90028C6
:1020F00008D1FFE75A480068002100F009F90028DC
:1021000000D094E056484068FEF79AF900F02EF9A6
:10211000564A0223D35E0424125F9A181090104688
:102120000F91FEF782F9109A0E9010460F9B0D91B9
:1021300019460E9A0D9B00F0D5F8002826D1FFE72E
:1021400047484068FEF77CF900F010F9474A02233F
:10215000D35E0424125F9A1A0C9010460B91FEF77E
:1021600064F90C9A0A9010460B9B099119460A9A39
:10217000099B00F0C2F8002808D1FFE73848006842
:10218000002100F0E8F8002844D1FFE73448406817
:10219000FEF756F900F0EAF8354A0223D35E04242C
:1021A000125F9A18089010460791FEF73EF9089AB8
:1021B00006901046079B05911946069A059B00F06C
:1021C00091F800282DD1FFE725484068FEF738F93F
:1021D00000F0CCF8264A0223D35E0424125F9A1A38
:1021E000049010460391FEF720F9049A02901046DD
:1021F000039B01911946029A019B00F07EF800288A
:102200000FD1FFE716480068174900F097F800283B
:1022100007D1FFE7124881680122D207514081604F
:1022200004E00F48134901604160FFE7FFE70C48F5
:1022300040680D4900F077F8002808D1FFE708480A
:102240004068002100F064F8002807D1FFE7044847
:10225000C1680122D2075140C160FFE712B010BD32
:1022600080000020140800480000E040F400002036
:10227000FA0000200000404080B584B0014603AA67
:10228000107002A800230370107801901846019A7C
:1022900000911146FFF7E0F8002805D0FFE7022083
:1022A00002A9FFF79BFDFFE703A801780120FFF7D4
:1022B000D3F8002805D0FFE7032002A9FFF78EFD21
:1022C000FFE703A801780220FFF7C6F8002805D031
:1022D000FFE7042002A9FFF781FDFFE702A80078CD
:1022E00004B080BD10B500F08FF8EFF3008040001F
:1022F000800F012800D0002010BD10B500F0B6F806
:10230000EFF30080800001D4012010BD002010BD3B
:1023100010B500F057F9EFF30080800001D50120DF
:1023200010BD002010BD10B500F04CF9EFF3008097
:102330004000800F012800D0002010BD10B500F033
:102340006BF9EFF300804000800F012801D00120DD
:1023500010BD002010BD10B500F05EF9EFF3008055
:10236000800001D4012010BD002010BDF0B513B4D1
:1023700006460199FEF7E2FA04460D4602460B4670
:1023800030460199FEF7B7FA064601981B4B0F46F7
:1023900000280CDA0022304600F068F80CD9002240
:1023A000174B3046394600F093F81DD214E0002256
:1023B000304600F05BF808D20022124B2046294636
:1023C000FEF799FA04460D460EE000220C4B30460B
:1023D000394600F07DF807D800220A4B20462946EE
:1023E000FEF77CFA04460D46019A69004908D20FAF
:1023F000D2072046114303B0F0BD00000000E0BF4B
:102400000000E03F0000F03F70B501252D050C00F5
:102410001C4310D4EC4206D4AC420AD4994200D0FA
:1024200070BD904270BDE94217D4EB4215D4994279
:1024300070BD894270BDEC4206D5AC42F9D58B42E5
:1024400000D070BD824270BD6D004C00EC4204D2E1
:102450005C00EC4201D28B4270BD034C30B4FEF7FD
:1024600009FB30BC70BD00BF1900130470B5012515
:102470002D050C001C4310D4EC4206D4AC420AD407
:10248000994200D070BD904270BDE94217D4EB4232
:1024900015D4994270BD894270BDEC4206D5AC425C
:1024A000F9D58B4200D070BD824270BD6D004C00EA
:1024B000EC4204D25C00EC4201D28B4270BD034C72
:1024C00030B4FEF7D7FA30BC70BD00BF1900160457
:1024D00070B501252D051C000C4310D4EC4206D428
:1024E000AC420AD48B4200D070BD824270BDEB4238
:1024F00017D4E94215D48B4270BD9B4270BDEC42AB
:1025000006D5AC42F9D5994200D070BD904270BD5D
:102510006D005C00EC4204D24C00EC4201D29942C6
:1025200070BD0FB40CBC03BC024C30B4FEF7A2FA71
:1025300030BC70BD1900160470B50125ED0704000C
:102540004C4020D4441A01D2001B0919C60D4B007F
:10255000F2B2FF2A29D01B0E2CD000020C02284315
:102560002C43D31ADC40051910D2280A02D3401C90
:102570006D0611D0761EF6058019FF2A00DA70BDAF
:10258000C00DC00570BD694000F076F8012005431C
:10259000C541521C761CE8E764089C40C9016140B3
:1025A0008900E7D10124A043E4E71B0E440200D0D8
:1025B000034870BD002AFCD1C00FC00770BD00BF2A
:1025C0000000C07F0123DB0502000A430DD4DA427C
:1025D00003D49A4207D488427047D84214D4D942CF
:1025E00012D48842704780427047DA4203D59A423B
:1025F000F9D5814270475B004200DA4204D24A00BA
:10260000DA4201D28142704710B5024AFEF782FADF
:1026100010BD00BF090013040123DB0502000A43BB
:102620000DD4DA4203D49A4207D488427047D84284
:1026300014D4D94212D48842704780427047DA429B
:1026400003D59A42F9D5814270475B004200DA42D5
:1026500004D24A00DA4201D28142704710B5024AE0
:10266000FEF758FA10BD00BF0900160470B5012529
:10267000ED0704004C4022D4441A02D26C40001BE7
:102680000919C60D4B00F2B2FF2A4BD01B0E50D0D9
:1026900000020C02A8432C43D31ADC40051B05D5CD
:1026A000AD0019D36D08761E521E37D0F605280AE4
:1026B00001D2801970BD70416D0603D070BD6940B4
:1026C000FFF740FF9C4009026140490001D0401ED5
:1026D00070BD0124A04370BD6D081DD001202B0CDE
:1026E00001D12D0410302B0E01D12D0208302B0FFB
:1026F00001D12D01001DAB0F01D1AD00801CEB0FEE
:1027000001D16D00401C361A121A6D00680AF505D9
:102710004019012A02DB70BD002070BDC036300AAE
:10272000C00770BD1B0E440201D1FF2B00D102482F
:1027300070BD002AF0D070BD0000C07F0000000016
:102740000000000001020304060708096C270008C6
:102750000000002010000000040100087C27000891
:1027600010000020280700002001000800127A0055
:0C2770000100000001000000010000005A
:040000050800016D81
:00000001FF
