:020000040800F2
:10000000000700206D010008750100087701000855
:1000100000000000000000000000000000000000E0
:10002000000000000000000000000000790100084E
:1000300000000000000000007B010008ED0C00083B
:100040007F0100087F0100087F0100087F01000890
:100050007F0100087F0100087F0100087F01000880
:100060007F0100087F0100087F0100087F01000870
:100070007F0100087F0100087F0100087F01000860
:100080007F0100087F0100087F0100087F01000850
:100090007F0100087F0100087F0100087F01000840
:1000A0007F0100087F0100086D0C00087F01000837
:1000B0007F0100087F0100087F0100087F01000820
:1000C00000F002F800F042F80CA030C808382418FC
:1000D0002D18671EA246AB4654465D46AC4201D180
:1000E00000F034F87E460F3EB6460FCC0126334270
:1000F00000D0FB1A3343A246AB461847C419000090
:10010000E4190000103A02D378C878C1FAD852072F
:1001100001D330C830C101D504680C6070470000BD
:100120000023002400250026103A01D378C1FBD813
:10013000520700D330C100D50B6070471FB500983F
:10014000019900F098F91FBD10B510BD00F0B9FC81
:100150001146FFF7F3FF01F06FF900F0D1FC03B493
:10016000FFF7F2FF03BC00F02BFD000007488047BB
:1001700007480047FEE7FEE7FEE7FEE7FEE7FEE78B
:1001800004480549054A064B70470000FD0D00086C
:10019000C10000080001002000070020000300202B
:1001A0000003002070B5064600F048F905683046A7
:1001B0000B30C408E400B44201D8002070BD686868
:1001C0002A46002818D00168A14211D30B462146C7
:1001D00008318B4208D3436801194B6003681B1B2D
:1001E0000B605160046001E041685160001D70BD0A
:1001F000024640680028E6D12146284600F026F94C
:100200000028DCD170BD0000002203098B422CD3F2
:10021000030A8B4211D300239C464EE003460B4356
:100220003CD4002243088B4231D303098B421CD3B8
:10023000030A8B4201D394463FE0C3098B4201D3AA
:10024000CB01C01A524183098B4201D38B01C01AE2
:10025000524143098B4201D34B01C01A5241030959
:100260008B4201D30B01C01A5241C3088B4201D308
:10027000CB00C01A524183088B4201D38B00C01AB5
:10028000524143088B4201D34B00C01A5241411ADC
:1002900000D201465241104670475DE0CA0F00D0BF
:1002A0004942031000D3404253409C4600220309B8
:1002B0008B422DD3030A8B4212D38901FC2212BA3E
:1002C000030A8B420CD3890192118B4208D3890116
:1002D00092118B4204D389013AD0921100E089092E
:1002E000C3098B4201D3CB01C01A524183098B420F
:1002F00001D38B01C01A524143098B4201D34B01F8
:10030000C01A524103098B4201D30B01C01A52415A
:10031000C3088B4201D3CB00C01A524183088B42E1
:1003200001D38B00C01A5241D9D243088B4201D36A
:100330004B00C01A5241411A00D2014652411046A8
:1003400063465B1001D34042002B00D54942704701
:1003500063465B1000D3404201B50549002802DC2A
:10036000491C084000E00846C046C04602BD00BF28
:10037000FFFFFF7F704770477047000030B50346AE
:10038000CA02400D1043164D164C0A1502D02043E8
:10039000002A06DBAA1A002A12DDD040FF2A0BDC55
:1003A00030BD5205520D01D140004008AA1A07D4B1
:1003B000D0404042FF2A01DD002030BD0028FCDD96
:1003C0004A00002B01D0012000E00020101801227B
:1003D0005205D042F0D8C817C043604030BD00007D
:1003E0001E040000000000800121C90501234118FE
:1003F00042001B06D3185B0E0AD0C1100722D2069A
:10040000891840075242D14201D5520089187047DD
:10041000090208D50146002A03D0C10FC9070020F0
:10042000704710467047420202D0002002497047D0
:10043000072109050143F4E70000F87F00487047F1
:1004400010000020704770477047704738B5044669
:100450000A4600206946C046C046002805D002462C
:100460002046009900F08AFA012038BD10B501201D
:1004700000F09EFA10BDF8B5C046C0460546002003
:100480000C461020C0460646A819A0420DD9324697
:1004900069460020C046C046070001D100F088FA36
:1004A0000098A04200D00546C419FFF7C7FFF61D0B
:1004B00007460560F008C0004619284600F008F815
:1004C000B44204D031463868A21B00F057FAF8BD98
:1004D000002101604160806070471020704770B556
:1004E0000446051FFFF7AAFF0068002C1AD04468D5
:1004F00001E020466468002C01D0AC42F9D30168C9
:100500000A18AA4204D12A6805468918016000E049
:10051000456028684119A14205D161686960216878
:100520004018286070BD6C6070BD0000F0B50C46CE
:10053000871A9C410D46861A9D4103D2C01BA141DA
:10054000D21963410D0D1F0DC94EEC1BAE435CD09B
:100550007F057F0D0026002F51D02D05AC46A94305
:10056000DD020123ED0A1B051D4320231B1B24D4A0
:100570001746E740381871412F46E740CC199D4097
:100580002818314661410C0D27D161449A4013D59A
:100590000023401C594152000ED140084000012266
:1005A0004B005205D34207D305204007C14201D575
:1005B000B04900E0B0493046F0BD6B00002A00D0E1
:1005C00001229A181F23203C1B1B01D5002302E0A7
:1005D000E540281871410C0DD7D0012424050919D4
:1005E000C407CD0740084908E40F28436144002CA4
:1005F000D5D00024401C61419A40D0D1CDE76A0596
:10060000520DD9D1C90FC907D5E79C4D4E0000281E
:1006100001D0012400E0002434195F00002A01D039
:10062000012600E00026BE19954FAC420CD8AE4220
:100630000AD8B44206D001256D05EC42BCD0104664
:100640001946F0BD9942FCD000203946F0BDF0B506
:100650001FB40C460F46811A9F412546861A9D41BC
:1006600006D20125ED076F40401ABC4152187B416C
:10067000210D1E0D8D1BAC467D4D8D437ED0750525
:100680006D0D7CD00D05AE46AC431B031B0B794DA5
:1006900052429D41202366469B1B14D31746F740C8
:1006A000381800260090744160462F460741E4192F
:1006B00000989D402818664116D4714671189A40DA
:1006C00025D5012320E093182A466A415200002BC9
:1006D00000D0521C1E23203E9B1B002B61DD3541A8
:1006E000EE1728186641E8D5001876415B1C9A4041
:1006F00000D3401C4B05F3181524E34010D3002B06
:1007000052D071467118D30FC01802D3491C05B0DE
:10071000F0BD0123DB079A42F9D140084000F6E71B
:1007200001225205B21801D1002853D00123CC0A6E
:10073000DB029943891E002A08D1020C03D0020C67
:100740000004103902E00246002020390023550B36
:1007500005D112020823550B01D152010D23550C6E
:1007600001D112011B1DD50C01D192009B1C150D4E
:1007700001D152005B1C2025EE1A01E02CE022E0A2
:100780000546F54015439840CA1AE1076918130554
:10079000C918002ABBDA032040070818C10FC9078F
:1007A0000FE071466118B2E7F10740080843711085
:1007B00071444A000CD001235B059A42A7D2C90FAD
:1007C000C9070020A3E74905490D26D1002001E013
:1007D0000028F4D100219AE7284D6600002801D0B6
:1007E000012100E0002171185F00002A01D00126DC
:1007F00000E00026BE19224FA94210D8AE420ED802
:10080000B14208D001256D05E94206D01946A8027B
:10081000414010467BE79C4201D0214677E700200B
:10082000394674E710B50C465C4005D50124E40751
:100830006340FFF70CFF10BDFFF778FE10BD30B42A
:100840000C465C4004D50124E407634030BC6DE6EF
:1008500030BCFCE670B50124E40761400D465D4004
:1008600002D4FFF763FE70BD6340FFF7F0FE70BD7A
:10087000FF0700000000F0FF0000F07F0000E0FF35
:100880000000F87FF0B501230A0DDB0200249A4333
:10089000E4430025002A28D05B1E9A4223D05B1037
:1008A000D61AA64228DB721C48D0342E18D2022257
:1008B000142E2BD822D00B460D36B34001D1002880
:1008C0000FD00024701E0B468340DB0FF2412846F8
:1008D000551EA943002B03D08918002C00D091434A
:1008E000F0BD0124EEE79A4239D04A000243F7D026
:1008F000C90FC9072846F0BD002223E00122C30F1B
:10090000400001D00024E2E70124E0E70346133E63
:10091000B34011D00023741E0746A740FC0FF241DC
:100920001746521E9043002CE5D0002B00D0521CDD
:10093000C01969419043F0BD0123ECE701220B038C
:1009400018430AD00023C90FC9072846002AF2D04D
:10095000002BF0D1054A1143F0BD0123F3E70A0350
:1009600001D10028F8D000200149F0BD0000F03F7F
:100970000000F87F004870470800002010B50346CB
:10098000406801E003464068002801D08842F9D35E
:100990001868C3188B4206D0CB1CD808C000001DB5
:1009A000411A521A0146081D0A60FFF798FD10BD52
:1009B00010B500F0B3F800F0ABF810BDF8B5264C58
:1009C0004E00069DA6420AD8A64201D1002806D1B3
:1009D0005E00A64203D8A6420AD1002A08D00D2400
:1009E0002404254233D02946002000F0BFF8F8BD8A
:1009F0000C461C4311D4994207D0C81A02D3EFF316
:100A00000080F8BDEFF30080F8BD801A02D3EFF349
:100A10000080F8BDEFF30080F8BD09242407E5004D
:100A20008B4207D0581A02D3EFF3008006E0EFF3B1
:100A3000008007E0101A03D3EFF30080A04303E027
:100A4000EFF30080A043284380F30088F8BD0095B1
:100A500000F0A4F8F8BD00000000E0FF10B5FF238F
:100A60001B0644009C421DD84C009C421AD80346E9
:100A7000124A0B4307D4401A02D3EFF3008010BD93
:100A8000EFF3008010BD081A03D3EFF3008090430A
:100A900005E0EFF3008001219043C907084380F38C
:100AA000008810BD0D231B041A4204D011460020FB
:100AB00000F05CF810BD00F07BF810BD0000009065
:100AC00070477546FFF756FFAE4605006946534628
:100AD000C008C000854618B020B5FFF751FB60BCC8
:100AE000B64600260027C0C5C0C5C0C5C0C5C0C524
:100AF000C0C5C0C5C0C5403D490849008D467047C6
:100B000010B50446C046C0462046FFF728FB10BD7E
:100B100010B5002801D000F053F810BD10B5012821
:100B200005D0002103A000F051F8012010BD09A15B
:100B3000F8E7000053494752544D454D3A204F7550
:100B400074206F662068656170206D656D6F7279C5
:100B5000000000003A2048656170206D656D6F727D
:100B60007920636F7272757074656400C80212D563
:100B70004803400F002804D0C803C0430121884027
:100B80007047EFF3008000010009032109070843C3
:100B900080F30088704700207047000010B50020E7
:100BA0000249029A00F02CF810BD00000000F87F06
:100BB00010B5024800F024F810BD00000000C07F0E
:100BC00001491820ABBEFEE72600020070B50546BD
:100BD0000C460A2000E06D1C00F041F8002D06D004
:100BE00028780028F7D102E0641C00F038F8002CC7
:100BF00002D020780028F7D10A2000F030F870BD2C
:100C000010B50C461107090F092904D00A290AD08A
:100C100008290CD104E011460820FFF7A7FF06E0E1
:100C2000510606D501E0510601D50120C007214635
:100C300010BDD10607D501010909CC084907000EEE
:100C40000006044309E0410F20024907000A01435E
:100C5000200E00061D22D14101430846E7E708B5F2
:100C6000694608700320ABBE08BD000080B584B0A3
:100C7000084840210290019100F0E2FCD048006851
:100C800003A9088000F05EFC0298019900F0ACFC1A
:100C900004B080BD1408004880B584B0029002986A
:100CA000401E000E002803D0FFE70120039013E050
:100CB0000298401E0A4908600020C14303220190A7
:100CC0000846114600F0B2F806480199016006484E
:100CD000072202600391FFE7039804B080BDC0467D
:100CE00014E000E018E000E010E000E080B5044807
:100CF0000168491C0160006800F082F980BDC046AF
:100D0000F000002080B586B000200590049003908C
:100D10000290344800680C2108400590059800288E
:100D2000019008D0FFE70198042808D0FFE7019858
:100D3000082808D044E02E482C49016044E02C48A3
:100D40002A49016040E0274801680F2293041940B6
:100D5000049100680321C903084003900498800CA3
:100D6000801C0490204800681040401C02900398AA
:100D700001210904884209D1FFE702991B48FFF7C6
:100D800043FA049941431A48016018E0039803218B
:100D9000C903884209D1FFE702991648FFF734FAE0
:100DA000049941431248016008E002990F48FFF797
:100DB0002BFA049941430E480160FFE7FFE703E087
:100DC0000B480A490160FFE706480068C0B2000905
:100DD0000949085C0590059805490A68C2400A60FF
:100DE00006B080BD041002402C10024000127A00B0
:100DF00000000020006CDC02A01A00087047000010
:100E000081B001466A461070107840B2002809D4BB
:100E1000FFE7684600781F21084001218140024811
:100E20000160FFE701B0704700E100E070B582B0FB
:100E3000024601AB18700091187840B2002817D410
:100E4000FFE701A8017849B20322D2431140184BB1
:100E5000C958007840B28407E40EFF25A540A94395
:100E6000009DAD01EDB2A54029431040C1501AE0EC
:100E700001A801780F22114008390323DB431940F0
:100E80000A4C0959007840B28507ED0EFF26AE40A6
:100E9000B143009EB601F6B2AE403143104008386F
:100EA00018400151FFE702B070BDC0461CED00E0E4
:100EB00000E400E09A480068012108407047C046FD
:100EC00084B002900191009202980099884203DD5B
:100ED000FFE7009803900AE002980199884203DA3C
:100EE000FFE70198039002E002980390FFE7039860
:100EF00004B0704781B000200090FFE700980728F9
:100F00000ADCFFE7009880003C4900220A50FFE716
:100F10000098401C0090F1E701B07047B0B50B4855
:100F2000012101703548016842688368C468084D32
:100F3000EC60AB606A602960016942698369C069DD
:100F4000E861AB616A612961B0BDC0469C000020C8
:100F50007C00002080B582B0019001980421405EA1
:100F600040420090FFE7009801990422895E884280
:100F70000FDCFFE70198008800B201990222895E28
:100F8000009A891800F01EF8FFE70098401C0090B6
:100F9000E9E702B080BD000083B00290019100201B
:100FA00000900198029989004058009901430091EE
:100FB0000098BF490A6802430A6003B07047C04600
:100FC0000C38004082B0019000910098072804DCA2
:100FD000FFE70098002801D5FFE70DE00098012108
:100FE0000A4682401202019B99400A43800003494D
:100FF0000B5813430B50FFE702B07047CC000020A2
:10100000F0B58DB00C9042480168424A1140016031
:1010100041490B68414C23400B60414B1D68102631
:10102000F7433D401D601D680B9020200A90C0438F
:1010300005401D600B9D2D68099001200890C0039C
:1010400005430B9805600D6825400D601D6835400F
:101050002D090C980790F748069005912946079DA1
:1010600004922A46039402930196009700F0F2FA44
:10107000029801680A9A114049090C9A069B0833A4
:10108000184600F0E7FA0B980168049A11400160D5
:1010900005990B68039C23400B60029B1D68009E12
:1010A00035401D601D68099F3D401D600568154065
:1010B00005600D680898000305430D601868019DE0
:1010C000284001090C9A0698103000F0C3FA0298E3
:1010D00001680A9A114049090C9A069B1833184670
:1010E00000F0B8FA0B980168049A11400160059964
:1010F0000B68039C23400B60029B1D68009E3540DB
:101100001D601D68099F3D401D600DB0F0BDC046CB
:1011100014000048FF7FFFFF14080048FFEFFFFFA7
:101120001000004870B582B000F046FA57480168D8
:10113000052253041943016022480168032399439F
:101140000160016855242403214301601E490C6895
:1011500001256E0234400C601C490C680F263604D1
:10116000B4430C600921C9060C68AE0734430C6017
:101170000C681E02B4430C600C689B029C430C601C
:101180004A490B68520213430B6001682A06114357
:101190000160FFF733FEFFF7B5FD0D4800687D21C4
:1011A000C900FFF731F8FFF777FD0A4907220A6007
:1011B000019000F023FA00F02BF800F00DF802B0D7
:1011C00070BDC04600080048040800480C080048EC
:1011D0000000002010E000E0CD4800210180CD4952
:1011E00007220A8001224A8042808A808280CA497E
:1011F0000860CA48034901604160034981600349AE
:10120000C160704700004040CDCC4C3ECDCCCC3DC1
:10121000F0B581B01D4801680322520411430160FA
:101220001B480168012293031943016019480021FA
:10123000016001601848194B03600F231B02184C12
:101240002360184B1D681126F60635431D600923DF
:10125000DB061D6817043D431D60134B1D683543B5
:101260001D60124B1D68520415431D600268402327
:101270001A4302602068184320601A200091FFF78B
:10128000BFFD0B480099016001B0F0BD1410024091
:101290001C10024024040048003800403F030000B6
:1012A00004380040000400480C0400480C000048CA
:1012B0000C38004080B58CB00B905B48C1680A9137
:1012C000816809914168089100680790FFF7F2FD75
:1012D000002801D0FFE7FFE700200690FFE706980F
:1012E00003284BDCFFE70698C000D4490818407873
:1012F000C00700283DD0FFE70698022805D1FFE788
:101300004A480168491C0160FFE70698032805D197
:10131000FFE746480168491E0160FFE7069801287B
:1013200005D1FFE742480168491C0160FFE70698C4
:10133000002805D1FFE73E480168491E0160FFE72C
:101340003B48016800220723039008461146029299
:101350001A460193FFF7B4FD039908603348026809
:10136000009010460299019AFFF7AAFD00990860C3
:10137000FFE7FFE70698401C0690B0E70020C04357
:101380000590FFE7059801281CDCFFE72848006866
:1013900005994018002810D4FFE7254800680599F2
:1013A0004018072809DCFFE7214800680599401824
:1013B0001E490968FFF706FEFFE7FFE70598401C96
:1013C0000590DFE70020C0430490FFE70498012860
:1013D0001CDCFFE71548006804994018002810D469
:1013E000FFE71248006804994018072809DCFFE766
:1013F0000F4800680D490968049A8918FFF7E2FD53
:10140000FFE7FFE70498401C0490DFE7D24800683C
:1014100000F026F8FFF782FDFFF76CFD282000F0B2
:1014200089F90CB080BDC046B01A0008F800002051
:10143000F4000020A000002080B584B000200390BC
:10144000042101900846FEF7ADFE02900298019932
:101450000160FFF767FEFFE70298FFF72BFFFBE74E
:1014600080B584B003902A48FFF774FD2948FFF740
:1014700071FD7248407CC007002812D0FFE7264863
:1014800001680222895E00680422805E0818401C00
:10149000072806DCFFE7204800684188491C418096
:1014A000FFE76648407EC007002812D0FFE71A48D1
:1014B00001680222895E00680422805EC0434018F1
:1014C000002806D4FFE7144800684188491E41807F
:1014D000FFE79648016802900846FEF785FF00F096
:1014E00053F9FEF74BFF02994A6801901046FEF748
:1014F0007BFF00F049F9FEF741FF01990090084693
:101500000099FFF75FFD00F0CFF804B080BDC04642
:10151000C0000020C60000207800002068000020E5
:101520000748016801221202914301607047C046DA
:101530000348016801221202114301607047C0464E
:101540001400004880B582B017480068082804DB02
:10155000FFE7164801210170FFE714480078C00733
:1015600000280DD0FFE712480078C007002801D1FD
:10157000FFE716E00C48002101600C480170FFE70E
:10158000FFF7D6FFFFF7CCFF07480168094A019033
:1015900008461146FFF700FD01980168491C0160EB
:1015A000FFE702B080BDC046EC0000200400002030
:1015B0009C0000207C00002081B000200090FFE70C
:1015C00000980E280BD8FFE70098C01C05490A6850
:1015D00002430A60FFE70098401C0090F0E701B06A
:1015E0007047C0460008004882B001900091009802
:1015F00001990A6882430A6002B0704781B00020F6
:101600000090FFE70098032816DCFFE70098C00071
:101610000A490818002242600098C0000818427069
:101620000098C0000A540098C00008188270FFE7B4
:101630000098401C0090E5E701B07047A000002032
:1016400082B001900091009801990A6802430A60F3
:1016500002B0704783B00B46029001A8017000925F
:101660000098029949680F3188421AD9FFE7029819
:101670004078029901221040087001A80078029970
:101680001040487002984078104002990978114043
:10169000401A411E8841029988700098029948605A
:1016A000FFE703B07047000080B582B01F48816833
:1016B00002680190104600F01BF901990860C968A2
:1016C0000198406800F014F90199486008681849C9
:1016D00000F04FF8002808D1FFE714480068002107
:1016E00000F03CF8002807D1FFE71048816801228C
:1016F000D20751408160FFE70C4840680C4900F078
:1017000038F8002808D1FFE708484068002100F0B9
:1017100025F8002807D1FFE70448C1680122D20755
:101720005140C160FFE702B080BDC04668000020A4
:101730000000E04082B0019007480068019940181D
:101740000090FFE7044800680099884201D9FFE74C
:1017500000E0F7E702B07047F000002010B500F09D
:101760000DF9EFF30080800001D5012010BD0020AD
:1017700010BD10B500F002F9EFF300804000800FBB
:10178000012800D0002010BDF0B513B40646019921
:10179000FFF778F804460D4602460B46304601999D
:1017A000FFF74DF8064601981B4B0F4600280CDA50
:1017B0000022304600F036F80CD90022174B304694
:1017C000394600F061F81DD214E00022304600F0E6
:1017D00029F808D20022124B20462946FFF72FF89D
:1017E00004460D460EE000220C4B3046394600F010
:1017F0004BF807D800220A4B20462946FFF712F87B
:1018000004460D46019A69004908D20FD2072046C6
:10181000114303B0F0BD00000000E0BF0000E03F56
:101820000000F03F70B501252D050C001C4310D4BD
:10183000EC4206D4AC420AD4994200D070BD90422A
:1018400070BDE94217D4EB4215D4994270BD89426C
:1018500070BDEC4206D5AC42F9D58B4200D070BDCC
:10186000824270BD6D004C00EC4204D25C00EC4240
:1018700001D28B4270BD034C30B4FFF79FF830BCEF
:1018800070BD00BF1900160470B501252D051C00A0
:101890000C4310D4EC4206D4AC420AD48B4200D0A4
:1018A00070BD824270BDEB4217D4E94215D48B4221
:1018B00070BD9B4270BDEC4206D5AC42F9D5994251
:1018C00000D070BD904270BD6D005C00EC4204D24F
:1018D0004C00EC4201D2994270BD0FB40CBC03BC69
:1018E000024C30B4FFF76AF830BC70BD1900160422
:1018F00070B50125ED0704004C4020D4441A01D2F4
:10190000001B0919C60D4B00F2B2FF2A29D01B0E8D
:101910002CD000020C0228432C43D31ADC400519BA
:1019200010D2280A02D3401C6D0611D0761EF6058F
:101930008019FF2A00DA70BDC00DC00570BD694076
:1019400000F04CF801200543C541521C761CE8E725
:1019500064089C40C90161408900E7D10124A0438B
:10196000E4E71B0E440200D0034870BD002AFCD1FE
:10197000C00FC00770BD00BF0000C07F0123DB05A2
:1019800002000A430DD4DA4203D49A4207D48842B3
:101990007047D84214D4D94212D48842704780424A
:1019A0007047DA4203D59A42F9D5814270475B000D
:1019B0004200DA4204D24A00DA4201D28142704740
:1019C00010B5024AFFF74AF810BD00BF0900130422
:1019D00070B50125ED0704004C4022D4441A02D210
:1019E0006C40001B0919C60D4B00F2B2FF2A4BD008
:1019F0001B0E50D000020C02A8432C43D31ADC402B
:101A0000051B05D5AD0019D36D08761E521E37D0C3
:101A1000F605280A01D2801970BD70416D0603D009
:101A200070BD6940FFF76AFF9C40090261404900B0
:101A300001D0401E70BD0124A04370BD6D081DD0B3
:101A400001202B0C01D12D0410302B0E01D12D02C1
:101A500008302B0F01D12D01001DAB0F01D1AD00BE
:101A6000801CEB0F01D16D00401C361A121A6D005C
:101A7000680AF5054019012A02DB70BD002070BD1F
:101A8000C036300AC00770BD1B0E440201D1FF2BC7
:101A900000D1024870BD002AF0D070BD0000C07FA8
:101AA000000000000000000001020304060708090E
:101AB0004000000080000000000200000001000063
:101AC000E01A0008000000200800000004010008DF
:101AD000E81A000808000020F806000020010008AD
:081AE00000127A000100000071
:040000050800016D81
:00000001FF
